S01100005A334C69676874536F632E73333739
S3150000400090CA002099D303004DF9000045B703007C
S31500004010A70A0A010042000004180FAC206A0B012F
S31500004020000000000000000000000000000000008A
S31500004030000000007CDC030000000000000000001F
S315000040400000000000000000FFFFFFFFFFFFFFFF72
S31500004050FFFFFFFF00A0050004000000002006008F
S31500004060FFFFFFFFFFFFFFFF8000000000000000D2
S31500004070000000000000000000000000000000003A
S315000040800000000000000000D4FD0020D4FD002048
S3150000409090CA00207B3504002AD4030030C10020DA
S311000040A0B4100020002006000000000004
S3150000420090CA002099D303004DF9000045B703007A
S315000042107DBC020049B703004DB703000000000053
S3150000422000000000000000000000000013E2000093
S3150000423051B70300D3DD0000072301000F2401005E
S31500004240E1B70300E1B70300E1B70300E1B70300FC
S31500004250E1B703006DBE020071760000E1B703000E
S31500004260E1B70300E1B70300972201007D2D0100AD
S31500004270E1B70300E1B70300E1B70300E1B70300CC
S31500004280E1B70300E1B70300E1B703002F24010003
S31500004290E1B70300FB500300E1B70300E1B70300F9
S315000042A0E1B703006F53030061530300E1B7030056
S315000042B0E1B70300E1B70300E1B70300F799030094
S315000042C0BF990300BD99030075940300F599030097
S315000042D0C1990300C5990300C3990300CDB3030038
S315000042E02D9A0300E1B70300E1B7030081660000E1
S315000042F0E1B70300694C0300E1B70300672A010038
S31500004300E1B70300E1B70300E1B70300E1B703003B
S31500004310E1B70300E1B70300E1B70300E1B703002B
S31500004320E1B70300E1B70300E1B70300E1B703001B
S31500004330E1B70300102B70B54A4A4A4B4B4C246830
S3150000434065070CD4C60701D41C4209D100EA04054E
S315000043508D4208D0521EF1D16FF0020070BD2EE0E2
S315000043606FF00108301D1C42FAD1002070BD70B5F7
S315000043703F4D6860E8680E46410700D51FE056F8D5
S31500004380040B141F0208101D241FA86044B1082145
S315000043900820FFF7CFFF0100F4D00421296070BD8B
S315000043A0042028600021211612C4162304D10C20F3
S315000043B00ABDE87040BCE770BD4FF0FF30563013C1
S315000043C041F67131284C0122284BE568E1621A60FA
S315000043D0606002262636300B2D0CFFF7A8FF05F08D
S315000043E001050100033C201CFFF7A0FF01211F4A25
S315000043F011600DB10021E16270BD2DE9F843184F3F
S315000044003D68894614464A200A80462D0C396201C9
S3150000441022154B00203A10251A6002E0B044B14440
S31500004420A41B7CB108F50056760B7603A6EB0806AE
S31500004430B4424946404638BF26463246FFF7919E6B
S315000044405003EBD00121085A10133962BDE8F283FC
S31500004450000080969800020001001C000340100432
S31500004460130C1004000120034000000038B5044678
S315000044700D46104600F0FFF800202070A847BDE862
S31500004480314000F006B9002259495A48EEE70022A9
S3150000449059495A48EAE770B5044616460D4630466D
S315000044A000F0EEF8002020703046A847BDE87040C6
S315000044B000F0EFB8012252495248ECE70122524976
S315000044C05248E8E7012252495248E4E7012252499C
S315000044D05248E0E702224A495148DCE702224A49AB
S315000044E05048D8E702224A494F48D4E701224F49AB
S315000044F04F48D0E702224D494E48CCE7F2224B49BD
S315000045004D48C8E780B5012000F0F6F94B4800F0A9
S3150000451087F94B49087001BD80B500F005FA0128FE
S3150000452005D047480078BDE8024000F063B901BDF8
S31500004530F0B5002400E0641C424D2E88E3B2B3427D
S315000045400ED2E7B20C256F433F4B3B441E788642A2
S3150000455001BF5D888D421E799642ECD11846F0BDAA
S315000045600020F0BD80B519B900F0C0F8002002BDEA
S31500004570B1F1004F02D200F0C4F8F7E7022002BD05
S31500004580B1F5000F3CBF0902FFF7ECBF02207047F0
S3150000459070B505461E46FFF7CBFF04000ED0284631
S315000045A000F00AFD50B1A0683146FFF7DBFF28B9DD
S315000045B004990598A0716171002070BD022070BD3C
S315000045C01CB500F009F8012203E01CB500F004F860
S315000045D00022FFF7DDFF16BD9DF81040009313463D
S315000045E00194704780B500230093FFF7EEFF02BDEC
S315000045F045E00000B4D70020BF9A0200BCD70020D7
S31500004600C72B03007CD700201B30030084D7002073
S31500004610313403008CD700200939020094D70020DA
S315000046209CD70020A4D70020ACD70020092D03007A
S31500004630C4D70020CCD70020D4D7002028CC002017
S31500004640FFFC002080D30020D4CB002080B5FFF7EC
S315000046506FFF20B1806800210170002002BD02209A
S3150000466002BD0122F2E70022F0E770470C480D492F
S3150000467008600020704700B1702070470020704726
S3150000468080B500F013F8FF2801D1A32002BD002059
S3150000469002BD00207047704700BF0348007870478E
S315000046A03E31040020EA00202CD8002080B500F01E
S315000046B0C1FCFF2818BF002002BD00210170704711
S315000046C000F014B8FFF75CBF38B54478456800F0D1
S315000046D0D1FF0C214C438B498B4B0A59521B9A42F2
S315000046E038BF0D51BDE8324000F0CABF10B50446D0
S315000046F000F0FEFF6060042020702046BDE81040F8
S31500004700E2E738B504460D4600F0F2FF2D18656065
S31500004710012020702046BDE83240D5E710B504469A
S31500004720207860B1042806D000F0E2FF6168764B7D
S31500004730421A9A4201D2002010BD081A10BD4FF04D
S31500004740FF3010BD70B5044600F0D2FF054600F0FC
S3150000475091FF064660686FF0004100F02DF845199C
S3150000476025603046BDE8704000F08ABFF8B50546C2
S315000047700E46144600F0BCFF024600239CB1FF2003
S31500004780207010E0087860B1042811D048685E4FA8
S31500004790111AB9420CD3801AB04202D2064604B1AD
S315000047A023705B1C083529680029EBD13046F2BD21
S315000047B004B123700020F2BD0022D7E770B505468C
S315000047C000F096FF0646514C10E0017869B10429C5
S315000047D004D041684C4A711A914206D204230370F0
S315000047E0206069688847002020600835286800280E
S315000047F0EBD170BD10B5044600F07AFF0C2254438D
S31500004800404A414B1159401A984207D214446068F5
S31500004810FFF7D4FF2046BDE8104093E710BD000027
S3150000482070B504463A4E3B4A70781378984204D3E2
S315000048305FF0F60138A000F0C1FF75780C20314A10
S315000048402B464343691C7170D11801264C600E72C9
S3150000485000E0457054F8080B0028FAD10846FFF727
S3150000486071FF284670BD0000F8B50C244FF0FF31EB
S3150000487060430091234D05F1080100220A54244E9D
S3150000488096F8000020B301F093F820B940F22F11FA
S3150000489021A000F093FF00F02BFF02460023DFF873
S315000048A068C005E00098814288BF014600915B1C04
S315000048B07178D8B288420FD260432958571A674593
S315000048C006D305F10807385C891A08B90029E9D129
S315000048D001F07BF80020F2BD684601F093F810B9AC
S315000048E0684600F028FF0120F2BD0C214843054B25
S315000048F00122184402727047054908707047034840
S315000049000068704768E20020010000805CF5002026
S31500004910FDFC00206A3104006576656E742D636FB8
S315000049206E74726F6C2E63000248007870470149FE
S315000049300870704759FD0020DFF80819F8B50A68B5
S3150000494088B0DFF8041903A8DFF800490260D1E94E
S315000049500027D4E90056DFF8F81804A8DFF8F44871
S3150000496006ABC0E900270A68C3E90056256801A816
S3150000497002AB02601D600321684601F051F8032274
S31500004980DFF8D4180A700021DFF8D00806AEDFF889
S31500004990D02803AC02EB0112655C04AC157036F846
S315000049A01130538034F8113002AC9380655C01AB52
S315000049B095715C5C00EBC40595601DF8014001250E
S315000049C0491C147355730229E1DD09B0F0BDDFF807
S315000049D0880800787047DFF8881801EB0010407BE4
S315000049E000F001007047412818BF422803D0432831
S315000049F018BF442801D10120704700207047412884
S31500004A0018BF422801D10120704700207047432873
S31500004A1018BF442801D10120704700207047F8B51F
S31500004A2015461E46069A079B044600F05FFA60B1DB
S31500004A30042100F064FD070007D02046FFF720FEA2
S31500004A40324629462046B84795E0F1BD2DE9FE439A
S31500004A501400064688461F461CBF0A9D002D20D01E
S31500004A60FFB128780C9B0107618820794CBF402252
S31500004A70802200F03BFAA0B1082100F040FD8146FB
S31500004A8078B12079FFF7FCFD9DF82C0000953B4698
S31500004A900190224641463046C847BDE8F743FFF736
S31500004AA0F8BDBDE8F783F8B5069C16461A460546D6
S31500004AB0234600F01BFAD0B121000BD1022100F0F1
S31500004AC01EFD040013D02846FFF7DAFD31462846BE
S31500004AD0A0470BE0102100F012FD070007D0284682
S31500004AE0FFF7CEFD224631462846B84743E0F1BDE2
S31500004AF02DE9FC41089C17461A460646234600F057
S31500004B00F5F908B9862016E000259CB9202100F0A9
S31500004B10F6FC804670B10A9C099D3046FFF7B0FD51
S31500004B200B9823462A46009039463046C04705462C
S31500004B30FFF7AFFD2846BDE8F681F8B504462078B4
S31500004B40A5680026FFF79CFD11E0F1B21422286843
S31500004B50514347183988207800F06DFF0121384607
S31500004B6000F0CDFC01001CBF20788847761C29790F
S31500004B70F0B28842E9D3BDE8F140FFF78ABD38B507
S31500004B800024DFF8D4560AE0DFF8C40A210600EB59
S31500004B901150427BD10748BFFFF7CFFF641C29782D
S31500004BA0E0B28842F0D331BD5CB585B00A9C0026E0
S31500004BB08DF80800ADF80A108DF80C30ADF80E200F
S31500004BC00196ADF8104000960023002201A902A824
S31500004BD000F058F8019807B050BD10B5002301E069
S31500004BE0001D5B1C9CB28C4204D204889442F7D10F
S31500004BF0408810BD002010BDDFF8581A401A0C225C
S31500004C0090FBF2F20021DFF8500A10E00288B2F5BC
S31500004C107C4F28BF00F002B80846EDE7DFF83C1AE3
S31500004C20401A142290FBF2F20021DFF8340A92B205
S31500004C30D3E710B50C460188628891420DD1037BFB
S31500004C402279134209D0B1F57C4F04D3FFF7E6FF72
S31500004C502189884201D1012010BD002010BD10B568
S31500004C6014460A88E3889A420AD10288B2F57C4F34
S31500004C7004D2FFF7CBFF2189884201D1012010BD64
S31500004C80002010BD2DE9F74F82B004469A46002554
S31500004C90002703E0C88845197F1CFFB2DFF8B81566
S31500004CA00A78974280F0D880DFF8B40500EB071049
S31500004CB02378027881689A42ECD10091407BC10743
S31500004CC0EAD54FF0000804E0B9F80A00451908F1E2
S31500004CD0010800995FFA88F00A799042DCD20A68E6
S31500004CE05FFA88F114204843214602EB0009484642
S31500004CF0FFF79FFF0028E7D04FF0000B07E0307961
S31500004D000BF1010B10F0300F04BFF0784519B9F81C
S31500004D1008101FFA8BF08842D9D21FFA8BF20C21A9
S31500004D20D9F804004A438618224631464846FFF71A
S31500004D3096FF0028E3D003982746344600B1046066
S31500004D402079810611D5DFF80C09002105E00279EA
S31500004D50930644BFC27851180C30A042F7D3DFF84F
S31500004D60040989B200EB010B04E0DFF8FC18ADB2D0
S31500004D7001EB050B0E9E049D3046E6B121464846E2
S31500004D80FFF744FF0246238879883878A84600F062
S31500004D9050FE00B32079C1062BD5002E2146484689
S31500004DA01BD0FFF733FF00950346798838782246F3
S31500004DB000F050FE51E0002D4FD021464846FFF747
S31500004DC025FF0246238879883878D846AB4600F016
S31500004DD02EFE0028DED17E203FE0FFF717FFE178A8
S31500004DE000950346019179883878224600F030FE16
S31500004DF033E05FEA0A01A07808BFE178412818BFCE
S31500004E00422808D043280DD18A1E92B24146584600
S31500004E1001F09CF91EE04A1ED2B24146584601F006
S31500004E207BF917E04428EFD03EB95FEA0A0004D0C8
S31500004E30E078824538BF89200FD3E178B8F1000FBA
S31500004E4003D1584601F066FA04E00A464146584640
S31500004E5001F064FA002000E0862005B0BDE8F08F7E
S31500004E602DE9F8430546894617469846002603E08D
S31500004E70217B0A0615D4761C2979F0B288421DD208
S31500004E80F2B2142328685A43841820884845F2D180
S31500004E90390006D0802FEBD0402FECD1217B4A067B
S31500004EA0E9D5B0F57C4F07D32046FFF7B7FE40455E
S31500004EB018BFB8F1000FDED1204600E00020BDE8A3
S31500004EC0F283134680B507E0134680B5402204E01E
S31500004ED0134680B5802200E0002200F007F800B1FA
S31500004EE0012002BD80B500234022F6E770B50C46CE
S31500004EF015461E4600F09EF8FF2801D1002070BD21
S31500004F002146DFF84C4704EB001033462A468068FA
S31500004F10BDE87040A4E70023E8E770B50C461546E7
S31500004F201E46002100F02FF8032800DAE8E70020EB
S31500004F3070BD1346402201E00022FAE72DE9F84F42
S31500004F4082468B46904699460026FFF7CFFF08B962
S31500004F50FF2016E00027DFF80843DFF8FC5208E0E0
S31500004F604B4642465946FFF7D8FF00B1761C7F1CD8
S31500004F70FFB22878874203DA3901605C5045EFD1E9
S31500004F80F0B2BDE8F28F70B50022DFF8D43200E04F
S31500004F90521CDFF8C4422578AA420BDA14011E5DC2
S31500004FA08642F5D10D0003D01C44647BE507EFD59E
S31500004FB0D0B270BDFF2070BD80B50021FFF7E3FFC2
S31500004FC0FF2801D1002002BD00F061F8407B00F00F
S31500004FD0010002BD70B50E4604460021FFF7D3FF5F
S31500004FE0FF2801D1002070BDDFF8641601EB001523
S31500004FF03200687B00F0010114BF40F00100002080
S315000050006873B14214D076B12846FFF796FD0FE0DB
S31500005010142200685143761C0844027B018820460E
S31500005020D209FFF713FBA868F1B202799142EFD3D8
S31500005030012070BD0121A6E7DFF814160001085C07
S315000050407047F8B50C46FFF7F5FF01460020FF292B
S315000050501FBFDFF8FC2502EB01118968002915D076
S31500005060002214270DE01B0608E0D6B20D687E4329
S31500005070AB19451C1B7B2600F5D05B0648BF2846AE
S31500005080521C0D79D3B2AB42EFD3C0B2F2BDDFF8FA
S31500005090C01501EB00107047F8B50C461546FFF732
S315000050A0C9FF0021FF281ED0DFF8A435002203EB3C
S315000050B000134FF0140C01E0491C521C9868D6B23C
S315000050C00779BE420FD200680CFB06F62F0030446B
S315000050D0067B02D0760602D4EFE73706EDD5CEB2D0
S315000050E0A642E9D1F2BD0020F2BD002109E010B5CB
S315000050F00446012100F005F82046BDE8104001F005
S3150000510035B92DE9F14F86B0884601F004FA5249C7
S315000051100A78059000260492DFF8340506E000EBD5
S3150000512001110A7B05998A420ED0761C049AF1B2C7
S3150000513091427CDA9DF81830FF2BF0D01846FFF725
S3150000514079FF0646FF2879D04FF0000A01E00AF100
S31500005150010ADFF8FC04320600F10801120D895835
S315000051605FFA8AF30A7993425CD2142009684343B2
S31500005170CD182A8940F22D118A42A8BF01F0A6FA5D
S3150000518034064FF00009240D1BE00328ACBFD7F806
S3150000519008B007F1080B0120009000235A460021B1
S315000051A001A8FFF76FFD5FEA080008D0BDF80620EA
S315000051B0DFF89C04015D3B46584600F0EEF809F125
S315000051C0010929891FFA89F08842C0D21FFA89F29B
S315000051D00C2168684A4387183B79D806EFD4DFF874
S315000051E070140A5D8DF804202B88ADF806303879E6
S315000051F0410628464CBF802140218DF80810398889
S31500005200ADF80A103946FFF701FDADF80C00397903
S31500005210F8784A07B9D5D7F808B00328BBDBDBF81E
S3150000522000B0B8E79DF81810FF293FF47EAFB8F13B
S31500005230000F04BF9DF8180000F014F807B0BDE891
S31500005240F08F000054D5030060D5030058D5030045
S315000052506CD5030068D5030055FD002040DC030033
S315000052602CD800207CB5044601F055F905460120EE
S31500005270FFF71CFA44F20306012C03D0FF2C08BFEB
S31500005280A84227D101237F22242100F083F800F0D1
S315000052907CF800F06FF801237F22252100F07AF8D0
S315000052A03020009001AB324600F064F801237F22E3
S315000052B0262100F06FF8202000F068F8082100F0A1
S315000052C05AF801237F22272100F064F800F056F8EF
S315000052D000F051F80220FFF7E9F9022C03D0FF2C69
S315000052E008BFA84240D101237F22282100F052F8AE
S315000052F000F04BF8062100F03AF801237F2229211D
S3150000530000F048F83020009001AB3246062100F04C
S315000053102EF801237F222A2100F03CF8202000F0FD
S3150000532035F8082100F023F801237F222B2100F015
S3150000533031F800F023F800F01AF802237F222C211E
S3150000534000F028F82120009001AB072200F00DF8AC
S3150000535002237F222D2100F01DF82120009001ABB1
S3150000536044F2100200F001F873BD4FF440710220C0
S3150000537001F00ABA0621012001F006BA20200090A9
S3150000538001AB4FF48042082170471020009001AB1A
S315000053900022704701A801F06FBD7CB504461D468A
S315000053A02879830740F1A3800023ADF8003004B9C3
S315000053B06C4644F2030601293AD1062A1AD12888F6
S315000053C050B900F099F838B92879410604D400F0AC
S315000053D08FF8242001F081FD2888B0420BD100F01F
S315000053E08BF8002807D1287941061CD400F080F8F4
S315000053F025207AE0082A7AD1288850B900F07CF86E
S3150000540038B92879410604D400F072F8262001F054
S3150000541064FD2888B0F5804F69D100F06DF800284A
S3150000542065D12879410662D400F062F827205CE055
S3150000543002295CD1062A1AD1288850B900F05CF8F6
S3150000544038B92879410604D400F052F8282001F032
S3150000545044FD2888B0424AD100F04EF8002846D1D3
S315000054602879410643D400F043F829203DE0082A74
S315000054701AD1288850B900F03FF838B92879410682
S3150000548004D400F035F82A2001F027FD2888B0F56D
S31500005490804F2CD100F030F848BB2879410626D43D
S315000054A000F026F82B2020E0B2F5407F1FD1288897
S315000054B007280BD100F020F840B92879410605D419
S315000054C0022322467F212C2001F007FD288844F282
S315000054D0100188420BD100F00FF840B92879410637
S315000054E005D4022322467F212D2001F0F6FC73BD50
S315000054F0012322467F2170472846FFF77DBB30B542
S31500005500047B012200230C4205D1002030BD144249
S3150000551018BF5B1C5200D5B28D42F8D30069DBB2CE
S3150000552050F8230030BD5149401A8003020C002177
S315000055304F48FFF752BB2DE9F84F054600244FF6BA
S31500005540FF79A246487D35B108B9022507E0012852
S3150000555004D1012503E008B9082500E0042500264A
S3150000556093469846414800EB86073988594516D137
S31500005570FB782B4213D0B878404510D30CB1824546
S315000055800DDBD9060BD53846FFF7CDFFB9781CB130
S31500005590514501DB484502D201248A468146761CE4
S315000055A04E2EDFDB4846BDE8F28F2DE9FE4F002781
S315000055B000284FF00108487D06D008B9022407E00C
S315000055C0012804D1012403E008B9082400E00424DA
S315000055D0B9460D9EDDF83CB08A46ADF80020019331
S315000055E0224901EB89052888BDF80010884223D19D
S315000055F0EA78224220D0A9789DF8380081421BD350
S315000056009AF80F00D20608D5B0B12846FFF78BFFEF
S31500005610BAF81010814201D00EE068B9BB4513D02C
S31500005620BDF8300087420FDAA9780198C155328853
S315000056307F1CBFB2521C328009F10109B9F14E0F2D
S31500005640CEDB4046BDE8FE8F4FF00008F9E70000CC
S315000056502CD80020F8D603005CDC030000DB030036
S3150000566058DC030008D900205CD80020BCD5030014
S31500005670F4D60300EFF31180302181F311887047CF
S3150000568080F31188704770477FB500F011F818B99C
S3150000569000F015F801F0B9FC04B070BD7FB500F05C
S315000056A007F818B900F00BF801F0C8FC04B070BD9B
S315000056B00446084615461E4602A901F0BBBD9DF8E4
S315000056C02010BDF8240033460091029901902A4625
S315000056D02046704780B500F00DF880B202BD80B557
S315000056E000F008F8FA21B0FBF1F080B202BD00002C
S315000056F000BF0000E0B501F082FD6A4601F0D1FD71
S3150000570018B14C2128A000F059F8DDE9000103B0DA
S3150000571000BD000080B501F054FF01F045FC20B14A
S315000057205FF0570120A000F049F8002002BD0120DB
S31500005730104908707047FEB504462168002501B976
S315000057401CE000F00CF808B100F002F8012019E0A6
S3150000575001950095216800233A46301D94E7054ED1
S315000057603570054F0023019500933A46301D95E7A5
S315000057700000000058F600202F57000000F025F921
S315000057800020FEBD02F073F8307840B92146301D86
S3150000579001F0C6FC2068852501F063FD01E00020CC
S315000057A0307020602846FEBD73797374656D2D7464
S315000057B0696D65722E63000042DE704738B5044697
S315000057C00D4600F083FF02F069F82946204602F0F4
S315000057D06BF82B4622466C49202002F005FA294632
S315000057E02046BDE83440E7E768482DE9F8430168FC
S315000057F0674E4FF42068B165026A6649F2650B6828
S31500005800336649687166426AB266816AF166C26A3F
S315000058103267016B7167806B96F83810B06748077E
S315000058204CBF346CF46B02F00DFA5B4B00228442E1
S3150000583001463265A14624BFA3F12007A742716540
S3150000584006F19002DFF854C1DFF854E118D3A069DD
S315000058507064E469B464B56DC5F30805062D13D10B
S31500005860704511D360450FD200884DF64264A042C0
S315000058700AD17068B46840F201785060946003E021
S3150000588000247464B46481464648814202D20146CB
S3150000589000E0091D0846984203D20C68B4F1CD3FDA
S315000058A0F7D04149081AF0640020002106F17C0473
S315000058B0C5B2401CC7B244F82510062FF8D3002005
S315000058C099452CD253F8041D7145F9D36145F7D299
S315000058D0CC07F5D5002406F17C0555F824708F42D7
S315000058E002D0641C062CF8D3062CE9D1C4B2002CD5
S315000058F006F17C040CBF0520401EC5B244F82510F5
S31500005900DEE7F16F002306F17C0506EB8304D4F88D
S31500005910804045F823405B1C042BF6D911600146F4
S31500005920481EC9B20029ECD1B06DC0F308000328A7
S3150000593010D0042811D0052812D0062813D00C2820
S3150000594017D03B2818D119480268910719D540F29B
S31500005950025816E040F6012813E040F6022810E04F
S3150000596040F603280DE0B8F5206F0AD140F604286A
S3150000597007E040F6052804E018B14D2838BF40F688
S3150000598007284046BDE8F28310D5030004ED00E089
S315000059900000002000E300E090CA00202AD40300A3
S315000059A06C4400009C00002090CA00201880014A28
S315000059B0EFF31080C00706D4EFF311803028804142
S315000059C0C043C00F704701207047002080F3118844
S315000059D07047704770477047704770477047704709
S315000059E07047704770477047704770470020704790
S315000059F07047704700207047704770470020704717
S31500005A00704770470020704770470120704701209B
S31500005A1070477047704770477047704770477047C8
S31500005A20002202F01DB9704770470120704701201F
S31500005A30704701207047704700207047002070476C
S31500005A4000207047002070470020704700207047F4
S31500005A500120704701207047B5207047002070472D
S31500005A6000207047002070470020704700207047D4
S31500005A70704700207047002070477047704700202D
S31500005A80704784207047704770477047704770476B
S31500005A9070477047704700207047704770477047DF
S31500005AA000207047704702F00BB9032070470020B2
S31500005AB07047044801680878012808BF022070472B
S31500005AC00000000020EA00207047002070474FF6D3
S31500005AD0FE720121C28181810161002202700120D2
S31500005AE07047002070477047704770470020704726
S31500005AF00020704700207047002070477047002044
S31500005B00704770470020704700207047002070479C
S31500005B100020704700207047002070470020704723
S31500005B20002070477047B52070470020704700205E
S31500005B307047704700207047704770477047B52020
S31500005B40704770477047704700207047704770472E
S31500005B507047704780B5FFF76DFAFF2805D0032818
S31500005B6003D2DFF8E816085C02BD002002BDE0B5EE
S31500005B700221009101AB0022032100F034FE20B97E
S31500005B80BDF8040010B1012000E00020C0B20EBD37
S31500005B90F8B5069F002400250646092F02D30020EB
S31500005BA00021F4BDA4460DE0A7EB000EB6441EF896
S31500005BB0010C2D0245EA1465002110EB04240CF1BA
S31500005BC0010C4D415FFA8CF0B842EDD39D4206D8E8
S31500005BD028BF944203D2101B63EB0501F4BDA01A43
S31500005BE065EB0301F4BD10B50268DFF8641613888F
S31500005BF00B8054884C8052790A7103681A794FF4E5
S31500005C008A53CB804A71026893799A06DFF8442654
S31500005C1044BF4FF48B53CB808169137839B9C08860
S31500005C20DFF8341603F0FD030880137010BD43F04F
S31500005C3002031370DFF8244681691622204600F01D
S31500005C406DFB0022227010BD80B50020FEF713FD0B
S31500005C50FF20FFF74AFAFEF71CFDFEF7B8FE0146E5
S31500005C600122DFF8E80501F0F7FFDFF8E435DFF899
S31500005C70F0255221DFF8EC0502F0D3F8FEF742FCDE
S31500005C8002F060F902F08CFB02F044FC03F0EFFB3B
S31500005C9004F007F904F012F9BDE80140FEF76FBF02
S31500005CA0704780B504F00BFA20B906F021F808B960
S31500005CB003F0DDFEFFF736FFBDE80140FFF742BF08
S31500005CC010B5044621684879FFF7B4F9FF281DD0BE
S31500005CD0DFF8981501EB0010217F027B8A4215D16F
S31500005CE0226840881188884206D04FF6FF73994291
S31500005CF00CD1B0F5004F09D22079022818BF03282D
S31500005D0006D11189507906F0AFFA08B9002010BD06
S31500005D10A07B0028204602D006F0F4FA01E006F047
S31500005D201BFB00B1012010BD38B515462A78540773
S31500005D304CBF0522032293422ED3069C049A206070
S31500005D402171E280A560A381287800F00100A0738C
S31500005D502978890801F00101E1732878012121756C
S31500005D60C00800F001006075E07B30B11A46284695
S31500005D7006F000FE217D891C21752082207DA289E6
S31500005D80411C2175285CA074481C2075C9B2695C49
S31500005D90C0B28242E17401D2002032BD0598A061F2
S31500005DA000F0B9FB2077012032BD2DE9FE4F804679
S31500005DB00F469246DFF8B8649B460D9D3046DFF8E5
S31500005DC0B414202206F008FEBDF8300002960195B4
S31500005DD000905B465246394640460024FFF7A4FF32
S31500005DE0DFF88494002866D0C9F80060B07CDFF83C
S31500005DF0881408703046FFF7F6FE304600F0B7FA12
S31500005E0020BB2DBB042F18BF052F03D0022F18BFB0
S31500005E10032F01D1012200E00022F18830680191B0
S31500005E200121438800930388F07C00F01CF990B1AF
S31500005E303068817988060ED4DFF84044012121704C
S31500005E400022304600F0D0F800202070012432E015
S31500005E50287D81072FD530684179FF2927D1A046B3
S31500005E60DFF8EC53FEF7B3FD5FFA88F1814222D2E8
S31500005E705FFA88F0FFF7E0F807465FFA88F0FEF76A
S31500005E80AAFD88B13068328A41883846FFF719F88A
S31500005E9050B13046FFF7A7FE306847712F71304684
S31500005EA0FFF70EFF00B1012408F10108DAE73046DA
S31500005EB0FFF706FF044606F0D7FC1621DFF89C0321
S31500005EC0FFF7AEFD0020C9F800002046BDE8FE8FB2
S31500005ED0DFF8AC130878401C0870FFE700F07F007D
S31500005EE07047DFF870130A78002814BF42F00102E9
S31500005EF002F0FE020A707047DFF8881308707047D8
S31500005F0080B1DFF880130978012904D1018841F0B6
S31500005F10400101807047022904D102884FF6BF7103
S31500005F200A400280704778B1DFF85C130A78012ACC
S31500005F3004D1DFF8582313780B7001E0022A03D14D
S31500005F40017841F0100101707047FEB5C14D2B7804
S31500005F50D90701D50020FEBDDFF80C130968BC4C3B
S31500005F6071B109688A79960603D5E28842F0200263
S31500005F70E28089794A0603D5E18841F04001E18053
S31500005F80B84A11784E07BC4947BF0F78D7700E78CC
S31500005F9056709B0709D5B2480188B04806F072FED4
S31500005FA0297801F0FD012970FEBDAB4B1D884FF627
S31500005FB0FC762946B14208D20190A948009203888E
S31500005FC02246002007F033F8FEBD00901346A44891
S31500005FD002882146284606F0F7FFFEBD0020B4E7FA
S31500005FE00146A1480068002270B5044620790E4695
S31500005FF01546002818BF01280BD1A0680178CA06EB
S3150000600001D5300005D0A07B002804BFE07C0B281A
S3150000601001D1002070BD0021914A1180607D00B938
S315000060200821E07B18B9084606F034FC06E041F08A
S31500006030040006F02FFC208A06F03BFCA07C06F04C
S3150000604029FC0B2006F026FCE07C06F023FC3046FB
S3150000605006F020FC2046FFF7C6FD2846BDE8704046
S3150000606073E70022C0E770B51D46894B1C78834E46
S31500006070012C01D0337813B10020307070BD0B00B5
S3150000608002D10AB1002070BD002C1EBF049C4FF641
S3150000609057439C4206D003460A4621462846FFF748
S315000060A0CBFC00B1012070BD38B5D288522403461E
S315000060B0950608464FF6FD7148BF4924550548BF69
S315000060C0083C150548BF083C120448BFA41E032B14
S315000060D00ED8DFE803F00902060BC0B207F09CFAFF
S315000060E002E0C0B207F0C2FC014601E0641EE4B261
S315000060F00846FFF7BEFC241AE0B232BD4254120A2B
S3150000610008444270704708440270110A130C120EBC
S3150000611041708370C270704770B50C000546164614
S3150000612008BF002003D02178FF2902D1FF20287064
S3150000613070BD204606F040FC864288BF06463246C1
S31500006140611C681C00F0EAF82E7070BDF8B50546B3
S315000061500C00164603D1002068702970F1BD207826
S31500006160FF2804BF6078FF2802D128706870F1BD4F
S31500006170204606F026FC0746BE42B8BF37463A46DA
S31500006180A11CA81C00F0CAF82F703F126F70F1BD59
S315000061902DE9F041541E002B3ED0042A37DC0023A3
S315000061A00026984614E0651B002814BF10F805C0A9
S315000061B04FF0000C571E4D5DA7EB0807FF000CFAC9
S315000061C007FC05FA07F74CEA03033E4308F101080A
S315000061D05FFA88F59542E6D3042A10DAD500012045
S315000061E0D2006D1E00FA02F2524243FA05F1CC07C4
S315000061F046FA05F048BF1343C00748BF16439E4200
S3150000620015DBB34203DA4FF0FF30BDE8F081002022
S31500006210FBE7AE42F7DB5B1CDDB29542F7D2651BAE
S3150000622000280CBF0026465D4D5DB542F1DA01201F
S31500006230EBE70021174A01E0891CC9B2535C83428F
S31500006240FAD3501840787047000000002CF4002064
S31500006250C0E90020B3FD002016FD002054F4002004
S3150000626018FD0020CCE9002050F400202CD8002096
S3150000627030F40020BCF70300DCD30020AFFD002083
S31500006280DDD30020B0FD0020B1FD0020B2FD0020CE
S31500006290DBD30020DCF70300283808288041C00F34
S315000062A0704710B500F009F8FF2801D1A32010BDF2
S315000062B0002104F83010002010BD04460846FEF701
S315000062C0B9BE38B500F00BF8FF2801D1A32032BDC6
S315000062D0294604EBC000BDE83440FEF743B9044646
S315000062E008461546FEF7A6BE40B11C280BD01D2851
S315000062F00CD01E2818BF1F2805D009E00B3910291D
S3150000630006D2002070471B29FBDB01E00929F8DBD8
S315000063108A207047002207F053BD704762B1814260
S315000063203ABF5318984206F059BB801813F8011D5E
S31500006330521E00F8011DF9D1704780B507F085FDA2
S31500006340FFF782FCBDE8014007F0AABD80B5FFF764
S3150000635094FBFFF7A5FCBDE8014007F0A7BE80B59A
S31500006360FFF78CFBBDE8014007F0B0BE7047FFF7B2
S31500006370CDBBFFF7D1BB3EB5BDF81C40BDF81850EC
S315000063800194009502F03CFC3EBD38B504460D462E
S31500006390FFF7DCFB2946204607F09BFD29462046F1
S315000063A0BDE8344007F0AFBEFFF7B8BBFFF7C2BB8E
S315000063B02DE9F0427D4E002030707D4C206838215A
S315000063C03825FFF72DFB33787A49087822686B4326
S315000063D0D0543078216800226843084442703078EF
S315000063E0216868430844827001F06AFC32782168AB
S315000063F06A430A44107201F063FC327821686A43EA
S315000064000A445072317820686B4A69430144107817
S315000064106A4AC8703378216817686B43C8184761A1
S3150000642067490A7802763078D4F800C0654A07468C
S3150000643015FB07F312680CEB0301CA61624AD2F836
S3150000644000902C22574309EB07020CF13407FA504F
S3150000645007F08AFE3078216815FB00F501F1340259
S3150000646051594A680968BDE8F04208F004B980B598
S3150000647092B06A460021002008F0D9FA08B101203E
S3150000648018E05249524A0A910B925249524A0C91CB
S315000064900D9210915148524A52490990524B0F920F
S315000064A011910E936A460021002008F0E5F900B12B
S315000064B00120C0B213B000BD80B5002000F01AF86C
S315000064C028B1002000F005F808B1002002BDFF2029
S315000064D002BD364A36481378016838204343C81847
S315000064E0807802281CBF1128432801D1012070475B
S315000064F0002070472D4A2E48137801683820434300
S31500006500C818407801281CBF0228032801D10120A1
S315000065107047002070470020704700207047704782
S315000065200020704701207047704700207047704771
S3150000653070470020704780B500F020F820B1002099
S31500006540FFF7D8FF00B1012002BD80B500F016F8B4
S3150000655008B1002002BDFF2002BD10B5044600F0C0
S315000065600DF848B100F019F84078012818BF022844
S3150000657002D10CB9012010BD002010BD0020A8E7F3
S3150000658080B5FFF7FBFF30B100F007F8417803292B
S3150000659001DA002002BDFF2002BD044A0448137838
S315000065A0016838204343C81870470000BCFD00202E
S315000065B06CCE0020C8D30020C9D3002074CE0020A2
S315000065C0BCD3002078CE002070CE002067C2010028
S315000065D0E359000025BE0100090003003FC1010088
S315000065E001B90100550502001BC001000021002071
S315000065F008F0F5BA7047002818BF08F0E4BD7047E8
S3150000660009F0A0B909F060B833B585B005468DF834
S31500006610042005F0C7FA0446284605F0D3FA7CB1F3
S315000066200028BDF818000FD105F034FCFF288DF8BE
S31500006630000004BF00218DF80010CDF808D016E048
S31500006640A8B106A8029012E005F024FCFF288DF8F8
S31500006650000003AA04BF00218DF800109DF8000079
S31500006660BDF8181002928DF80C00ADF80E10DDE999
S3150000667001010A460146284603F02CFC07B030BD4E
S3150000668009F064B97FB51C4991E81C0068460321EE
S3150000669080E81C0001250D268DF807108DF80050A6
S315000066A08DF806600821242009F094FA69461348FB
S315000066B009F080FD4FF40060114908600222114B79
S315000066C01A60114C206011490A607FBD0B4809F021
S315000066D060BDA52803D10021084809F049BD7047CF
S315000066E00B48006805E00B4908680028FCD1704794
S315000066F0C84000F00100704704EE03000080014A24
S3150000670084E200E018A0014A04E100E01C90014A7E
S315000067100480014A2480014A2DE9F84785B0109D7E
S315000067200F9F0E9C0295019706468A46904699460B
S315000067300094FFF77AF9010003D0022803D002D3B0
S315000067400EE001200CE00CBF012000200021049186
S31500006750039002950197009400F07CFA00F0C8F9C6
S3150000676006B0BDE8F08778B585B00024049401250D
S315000067709DF82C600A9C0395002520E078B585B02D
S3150000678000F008F880231DE078B585B000F002F827
S31500006790402317E09DF82860002401250193049406
S315000067A0039502960094704778B585B001240025BC
S315000067B0049403959DF830600B9CBDF82850029612
S315000067C00194009500F094F906B070BD7FB5099C60
S315000067D00A9D00260294089C03950096019400F0F9
S315000067E048FA04B070BD38B584B000F002F8402312
S315000067F007E0089C002501930395029400957047D5
S31500006800019400F036FA05B030BD2DE9F24F0024B0
S3150000681082B04FF6FF79A046B1F57C4F04D301262E
S315000068200196AE490E8801E00194012600258DF8F7
S31500006830010093468DF8003021E0AAB20C20DAF868
S31500006840041042438F183888584511D30CB180453F
S315000068500EDB39465046FEF7D9F9010008D03988D3
S315000068601CB1414501DB484502D2012488468146D8
S315000068706D1CBAF80810A8B28842DED36D1CA9B206
S31500006880B14213DA019840B1954A02EB8100438880
S3150000689000F00FF8FEF72AFB03E000F00AF8FEF717
S315000068A03AFB0028EAD000258246E2E74846BDE8E2
S315000068B0FE8F9DF80020BDF808109DF80100704776
S315000068C02DE9F84F84B0DDF8389090461C46054611
S315000068D08A464B4622460026ADF80060FEF706FBC8
S315000068E0B34607008DF80450ADF806A08DF80840B1
S315000068F0ADF80A80ADF80C904BD001A9FEF799F9D6
S31500006900002846D0ADF802800024DDF83C90DDF882
S3150000691040A0BDF8008015E0B1B249450FD205F0A0
S31500006920C8FFA87805F0B6FF5FEA0A0006D0287906
S31500006930C10754BF0520072005F0ACFF761C08F1FF
S315000069400108641C3989A0B288421AD2A2B20C216D
S3150000695078684A433B888518B3F57C4F09D2288866
S3150000696001AA2946ADF80A003846FEF778F900284C
S31500006970E7D02888BDF802108842CDD20BF1010B72
S31500006980DDE7B6B21FFA8BF006441FFA88F086429E
S3150000699001D1012000E0002005B0BDE8F08F2DE90F
S315000069A0F84795B04FF00009DFF8388101E009F1AA
S315000069B00109FEF70CF85FFA89F181424AD24FEAE3
S315000069C0096000254FEA105A00E06D1C08F1080026
S315000069D050F80A00E9B202799142E8D20168EBB2B6
S315000069E0142043430027CE181FE0A078FEF70FF8C7
S315000069F0D0B104A805F0E5FF16E00021039141227D
S31500006A00029204A9019100902288318818F80A00A0
S31500006A1000F02FF9862807D0A078FDF7F0FF0028B0
S31500006A20E3D004A805F0C8FF7F1C3189B8B28842BC
S31500006A30CBD2BAB20C2170684A438418FFF746FEDF
S31500006A4021463046FEF7E2F821794A064CBF8023FC
S31500006A504023D2E716B0BDE8F087F8B596B01D9D85
S31500006A601646052D30D304AA0392BDF870204124A2
S31500006A7005AF009202940197324600F0FAF804003E
S31500006A8024D19DF81000412205A909F0D9FB040084
S31500006A901AD02D1FA54217D3304605F00AFF002055
S31500006AA005F0F8FE9DF810000F4D05F0F3FE2E8858
S31500006AB0C6F152018C4207DA0C4B224605A99819F9
S31500006AC0FFF72CFCA4192C8017B0F0BD304605F05A
S31500006AD0F0FE204605F0DEFEF6E700004031040039
S31500006AE058DC03002CD8002018FD0020CCE900203B
S31500006AF02DE9F84F88B00646129D00208A4690463A
S31500006B009946049001248DF81460ADF816A08DF80E
S31500006B101890ADF81A80ADF81C500094002300229E
S31500006B2004A905A8FEF7AEF8049808B986208DE0FA
S31500006B30159860B904999DF850008A78904218BF5C
S31500006B408D20F4D10979C80758BF8820EFD504985D
S31500006B50139F0179480726D50499886841680498E7
S31500006B60029181688868049901908878FFF794FB00
S31500006B70834604985B46C1788DF8001003290A46BF
S31500006B8039461ED202A8FFF703FB9DF800200446F3
S31500006B905B46394601A8FFF7FBFA012C1CBF4FF0F4
S31500006BA0FF3188421CD0169800284ED104984FF623
S31500006BB0FF723946807809F043FB040012D10120A8
S31500006BC044E00298FFF7E4FA012809D09DF8002076
S31500006BD001985B463946FFF7DBFA10F1010FE2D167
S31500006BE0872033E00397C0B200F039F8FEF78AFF3A
S31500006BF001002BD10397E0B200F031F8FDF778FFE2
S31500006C00010023D10120009000233A46002105A867
S31500006C10FEF738F8010019D1049B52463146384632
S31500006C20FEF7BBFB029700F01BF802F03BFF039751
S31500006C309DF85000E4B20294019000F00AF8FEF7C5
S31500006C4060FF00F006F8FDF72EFF002009B0BDE852
S31500006C50F08F00954B4642465146304670470290AB
S31500006C609DF8500000954B460190424651463046ED
S31500006C707047F0B585B01C460A9E0B9D0C9B0027FD
S31500006C8001978DF80800ADF80A108DF80C40ADF8A4
S31500006C900E20ADF8106000972A4601A902A8FDF75C
S31500006CA0F1FF010004D10D9911B1019A93780B708F
S31500006CB005B0F0BD2DE9F84F88B009F0E7FA08B144
S31500006CC0C620D6E0DFF8B052DFF8B0623168286837
S31500006CD00AF08AFE04002CD032685168002410683D
S31500006CE0926913689847316802A88A69916888474B
S31500006CF0326802209169CA68904706E009681269FD
S31500006D0000FB0410641CE4B29047039831684B689A
S31500006D10B3FBF0F38A699C42F0D3D1680020884720
S31500006D203068816948688047316828680AF05CFEE7
S31500006D3004460027DFF84862002C71D1DFF84402D0
S31500006D4050F82790DFF84012C85DD8B1286801AB2B
S31500006D506A4649460BF052F8B04208D000285FD187
S31500006D60009801285CD0286849460BF085F8DFF8C2
S31500006D701C0250F8271028680A6849460AF083FF63
S31500006D8004464DE0DFF80812CA5DDFF808324FF01E
S31500006D90000A0792D95DDFF8F481069105E00198B3
S31500006DA00799884217D10AF1010A069882451BDA2B
S31500006DB028680AEB090B01AB6A4659460BF01EF828
S31500006DC0B04208D00028EED100980028E7D0286805
S31500006DD059460BF051F8079B58F827202868594662
S31500006DE00AF0C6FE0400DED0DFF8AC11C85DB8B10B
S31500006DF0DDF8188001E008F10108B8F17F0F0FD225
S31500006E00286808EB090A01AB6A4651460AF0F6FF04
S31500006E10B04205D0286851460BF02EF80400EAD09F
S31500006E207F1C312F88DBDFF874011CB9012101704A
S31500006E30002415E000210170002CF9D0DFF8600174
S31500006E40241A08D0641E08D0A41E08D0241F0CBF24
S31500006E50C124C52404E0C22402E0C32400E0C42403
S31500006E602968087C20B1D321DFF83801FEF7A6FC9B
S31500006E70204609B0BDE8F08FF8B50E461546312E0E
S31500006E8020DADFF81821117881B1DFF8EC201468D8
S31500006E90DFF8F420915DDFF8EC7041B157F8261069
S31500006EA0024620460AF030FF00B146E0F1BD7F2DD4
S31500006EB0024657F8260008BF0025291820460AF082
S31500006EC09CFEF1E7B1F5807F04D301B0BDE8F04048
S31500006ED00BF084B840F2011133E0F8B506461546CA
S31500006EE0312E1EDADFF8B420107878B1DFF888206A
S31500006EF01068DFF89420945DDFF888703CB12A684A
S31500006F0057F826100AF0BFFE00B116E0F1BD7F2942
S31500006F1057F826402A4608BF002109190AF028FE1C
S31500006F20F2E7B0F5807F05D31A462946BDE8F8405A
S31500006F300BF09EB84FF49A7103E0BDE8F2400BF0F7
S31500006F4010B9DFF86000BDE8F440FEF737BCDFF8A3
S31500006F504C201178002900D1704710B5094B53F821
S31500006F602010054C206800220AF000FF18B1BDE889
S31500006F7010400BF0F6B810BD20CF002040CF002007
S31500006F800BE000F0A4F2030068F30300C4F603006C
S31500006F90D0F3030004F403009CF30300ABFD0020D0
S31500006FA001E000F088F70300F8B5FEF763FB04463E
S31500006FB0DFF89455287830BB0021DFF89005016092
S31500006FC0DFF88C351960DFF88C0501800BF0D0F8FE
S31500006FD001200BF02EF90BF08BF90200DFF8780593
S31500006FE0026004D12046FEF74BFB2320F2BDDFF8FA
S31500006FF06C0540F2E73100230BF086F9DFF8606597
S31500007000306001272F7020466AE0F8B5044684B048
S3150000701000F02BF80CB922200EE003A9204600F060
S3150000702063F89DF80C00012808BF032004D000F087
S3150000703013F8002200F023F805B0F0BDFEB50400F9
S315000070400D4616461F4601D12220FEBD00F023F84C
S3150000705000F018F800220FE0BDF82C009DF828106B
S315000070600290009701913346704700200D46164660
S315000070701F468DF80C00704700F001F8FEBD29464A
S31500007080204636E2BDF824009DF8201002900097B5
S31500007090019133467047F8B5054600240DB9222004
S315000070A0F2BDFEF7E7FA064600F00DFADFF89C742B
S315000070B03868A842284608BF012400F0CBF905002D
S315000070C003D000F089F82846F2BD38681CB118B123
S315000070D000F0DBF903E010B902200BF0B7F83046F8
S315000070E0FEF7CEFA0020F2BD38B505000C4618BFF3
S315000070F0002C01D1222032BD00202070FEF7BAFA02
S31500007100DFF848140A6800E092682AB1217819B9B4
S31500007110AA42F9D101222270FEF7B2FA002032BD4E
S3150000712070B505000C4618BF002C01D1222070BD99
S31500007130FEF7A0FA064600F0C6F96869DFF80C14F7
S315000071402060086805E0B0B12168426951182160E5
S315000071508068A842F7D10BF03FF8DFF8F4532968AE
S315000071602268401A90420AD20BF036F82268296843
S31500007170101A081804E000F02FF8032070BD002054
S31500007180206000F029F8002070BDF8B507460C46CF
S31500007190FEF770FA0646DFF8B4030025006800E043
S315000071A08068A8B14169C2884D19BA42F8D10BF07E
S315000071B013F8DFF89C733968401AA84205D20BF021
S315000071C00BF82D1A3868451900E00025256086E77A
S315000071D000F002F81B20F2BD3046FEF751BADFF888
S315000071E084030078704738B5FEF744FA04460AF07F
S315000071F0F3FF05462046FEF743FA284632BD70B532
S31500007200FEF738FA06460AF0E7FF0546DFF84403BC
S31500007210048801200BF030F818B10AF0DDFF0546AE
S31500007220641CFFF7D9FF2146284670BDDFF8280306
S315000072300068704730B50C46DFF824130A688242AE
S315000072400DD3DFF8145329684FF47A720023A1FB9B
S3150000725000010BF059F8401C2060002030BD2120B1
S3150000726030BD70B5BC490E68CEB14FF47A71A1FB42
S315000072700045304600F083F948B1304600F07AF90F
S31500007280024620462946BDE870400BF0C1B82046AC
S31500007290294632460023BDE870400BF035B8002081
S315000072A070BD2DE9F041B04DB04CA94223D828BF9E
S315000072B0A04220D2A84B1F68EFB14FF47A78A8FB02
S315000072C000451646384608FB015500F058F940B10E
S315000072D0384600F04FF90246204629460BF098F84A
S315000072E005E0204629463A4600230BF00DF8C6E98C
S315000072F00001002000E02120BDE8F0812DE9F047E3
S315000073000546DFF84882E8070AD592480188491CF5
S31500007310018000F0D8F8D8F8000008B100F0B5F800
S31500007320A80766D58A4F0AF057FF3C68054600262F
S31500007330B2462C1B3BE0486984423FD322460846AE
S315000073403D6043699A4209D3067991F804E076458F
S3150000735038BF01468068D21A0028F2D10E46484648
S31500007360FEF78EF9706900217161241AFEF782F921
S315000073708146304600F06EF84846FEF781F93069DE
S3150000738048B1FEF777F931698146304600F033F8A7
S315000073904846FEF775F9F26812B1316830469047F3
S315000073A00AF01AFF0419641B0AF1010A0546FEF7E2
S315000073B061F9D8F8001081460029BCD10020BAF145
S315000073C0010F04D11EB1F288022A08BF0120684AC3
S315000073D0107031B14869041B4C613D6000F055F8EE
S315000073E002E002200AF032FF4846BDE8F047FEF709
S315000073F047B9BDE8F087F8B50446E0880D4630B9D0
S315000074000BF020F985423CBF05460BF02DF965616E
S315000074104E4E3268D2B1002351698D4206D229B14F
S31500007420681A09D110792779B84205D26D1A6561B3
S3150000743013469268002AEFD1002B14BF9C6034607B
S31500007440100005D051694D1B556101E034600020E4
S31500007450A060F1BD3D4B0022196801E00A4689682B
S31500007460002918BF8142F9D1814201D0022070471C
S315000074708168002A14BF91601960816819B14A6950
S31500007480406982184A610020704738B530482F4C51
S31500007490056821684869451902200AF0CAFE28468F
S315000074A00AF0A0FE20680021002283799C0706D4FA
S315000074B0806828B1436959180229F6D300E00122F1
S315000074C02848027031BD10B50AF086FE1F490968CA
S315000074D01F4A61B113684C69C31A9C4202D3E31A6E
S315000074E04B6104E0001B10600020486110BD106075
S315000074F010BD70B50C46059906461546049A0698C1
S31500007500317132600021B1603561F360F0803CB9C1
S31500007510F268716112B131683046904795B12C46D8
S31500007520FEF7A8F80546FFF7CEFF21463046FFF7DF
S3150000753062FF06480168B14208BFFFF7A6FF28466A
S31500007540FEF79EF8002070BDA6FD002090F30020F7
S3150000755094F300202AFD00208CF3002018FCFFFF86
S3150000756098F30020A7FD002037894100F0A7C64BFD
S31500007570A8FD0020B0FA80F0C0F11F00704720B1CE
S31500007580411E084201D10120704700207047704714
S3150000759001463D48814202D14FF0FF3070473B4AD9
S315000075A04FF6FF7091420BD0394B01D0994207D06C
S315000075B0914218BF994202D0364A914200D000202B
S315000075C0704770B588B004A83349102205F004FA54
S315000075D00D22002168460BF05FF902208DF80600A7
S315000075E0294C6A46002120460BF0E0F92046FFF7B9
S315000075F0CFFF206B4FF6FF71E1610022ADF812203C
S31500007600264D04A920460BF07BF9062008F0A2F9C6
S31500007610BDF912104A1CB0FBF2F0491CADF812106D
S3150000762009B22860B1F5806F02DA1D498842E8D2B6
S315000076300F2008F08FF92D681A4EB6FBF0F61A489F
S315000076400021E6FB0501194A00230AF05DFE184DEC
S315000076502860002617490E70A0694021164B20F0BD
S315000076601000A061154801601960002008B070BDC7
S3150000767014480068C10605D51020114A1060012182
S315000076800C4B1970704700000080044000C0044095
S315000076900000054000400540ACF7030024F400203C
S315000076A081841E0000B0710B20A1070040420F002C
S315000076B028F40020AEFD002000E100E080E200E0BA
S315000076C014A00440148004406B4800686B49694A62
S315000076D0000C000408601060704701000FD44009D8
S315000076E0674A52F8202001F01F01CA40D20706D58A
S315000076F0644B53F82000C84000F00100704700209A
S31500007700704780B50AF094FE18B192215E48FEF7E4
S3150000771055F85E495E48BDE804400AF0ACBF00007B
S3150000772070B506460D465B4C300030D100215048FE
S3150000773001602846012D18BF00200BF072FB6D1E5C
S31500007740032D46D8DFE805F002121420012101209E
S31500007750FEF7FFF9FEF7C4FF207010B1A520FEF773
S31500007760B8FF0120BDE870400BF05BBB022100E0D2
S3150000777004210120FEF7EDF9FEF7B2FF002828D01C
S31500007780BDE87040FEF7AFBF052101201DE020785F
S3150000779018B10121404808F0EBFC3046012E18BF15
S315000077A000200BF05EFB761E032E12D8DFE806F0F3
S315000077B00207090B01200BF054FB012104E0022112
S315000077C002E0042100E005210020BDE87040FEF73C
S315000077D0C0B970BD38B5284841680468244D1A20E0
S315000077E00C40A4B22C60FFF778FF18B91920FFF7F8
S315000077F074FF10B144F480342C600A20FFF76DFF4B
S3150000780018B1286840F40030286031BD38B500242E
S31500007810012808BF01240CD0022814BF0328022423
S3150000782007D0042808BF032403D0052808BF0BF09F
S315000078306EFD0BF0A7FD0546012120460AF0ABFEC2
S3150000784028460BF0A3FD0BF0E1FDFEF7BEF80AF0AB
S315000078501BFE0BF0DDFD0BF095FD054600212046D5
S315000078600AF099FE2846BDE832400BF08FBDCDE701
S31500007870A4F30020A8F3002020C4034020E4034022
S3150000788000E200E000E100E094F2030084CF002073
S315000078909CF30020A9FD00200080014A302080F3DF
S315000078A0118870470BF092BE03460A469EA104203B
S315000078B0FFE70CB480B502AA00F02AF801BC5DF817
S315000078C00CFB000080B586B00CF06AF92022049209
S315000078D0964A00216A230092059103930291019131
S315000078E00246002395A10120FFF7E3FF9048817926
S315000078F00288437903910179029201930091C3783A
S3150000790090F8022090A14220FFF7D3FF07B000BDF8
S315000079102DE9F04786B007460C46914600260CF046
S3150000792067F900287CD10BF0C7FD002878D000212C
S3150000793000200CF04EFCADF80400002870D00021A9
S3150000794001A80CF06FFD394602A80BF0BBFD0746F7
S31500007950D4B900F098F8002862D1BDF804000CF004
S3150000796095FB8DF80000BDF804000CF077FB694626
S315000079700BF0B4FD002853D004200CF035F94FE08D
S315000079808DF808100127641C20780028E1D0A0F1AA
S3150000799030010A2904D20A2101FB0606303EF2E72D
S315000079A000F071F800283BD12178002702A842296F
S315000079B00ED044291AD0462925D057290DD0622940
S315000079C040D0662932D06C292DD070292ED0D7E729
S315000079D059F8040B8DF80800D4E759F8041B022760
S315000079E08DF808100904090E4170CCE759F8041BFC
S315000079F004278DF808100B0A0A0C090E43708270D2
S31500007A008DF80B10BFE759F8048B40460CF076FE54
S31500007A10C2B20123414601A80CF060FC0028B2D096
S31500007A2006B0BDE8F08759F8046BACE759F8041BBB
S31500007A300123F2B201A80CF051FC002808BF002671
S31500007A40A1D0EDE7BDF804000CF020FB59F8045B6B
S31500007A508046A8B2002896D00CF018FB82460AEBA6
S31500007A600801C9B201A80CF0DDFC0028D8D15FFAE4
S31500007A708AF00090BDF804000023AAB25FFA88F1EC
S31500007A800CF05CFD7FE701233A4602A901A80CF041
S31500007A9025BC00002DE9F84185B004460D46904608
S31500007AA0122806D03A2808D04FF6FE71884226D012
S31500007AB032E000200BF0EBF92EE004F019F906464F
S31500007AC000200DF0B9F8074600200DF0BFF8034678
S31500007AD0184A0496154892F800C00390482010FBF7
S31500007AE00CFC1549002201EB0C00B0F8E2100192E3
S31500007AF00097029116A13B20FFF7DBFE0CE0002267
S31500007B00414628460CF0B4FB0746FEF70DFD384605
S31500007B10FDF766FFFEF70CFD42462946204606B0F5
S31500007B20BDE8F0410CF066B857460000D0F50020DD
S31500007B308C120400BCFD0020CCF7002042423870B5
S31500007B40424242425700000042424242574200002F
S31500007B505742425757387042000000002DE9F04165
S31500007B6004460125012C8AB00F46904618BF202CEA
S31500007B701E4619D168462349282204F02DFF012C00
S31500007B8018BF202C08D0022C18BF212C04D0032C9F
S31500007B901CBF222C232C14D10197ADF81080012E86
S31500007BA004D14FF4805005E001200BE0022E03D1F2
S31500007BB04FF44050ADF80E00694620460BF08AF9A6
S31500007BC00546E8B20AB0BDE8F08180B50BF029FAA7
S31500007BD0C0B202BD80B50BF095FAC0B202BD80B549
S31500007BE00BF01AFBC0B202BD0CB40A4680B50146C2
S31500007BF002AB05480DF06EFF002002BC5DF80CFBE1
S31500007C00000000005CF20300B131010010B504462B
S31500007C10FFF744FE200A00280B484FF20F0108BF69
S31500007C20240204804180BFF35F8FBFF34F8F074963
S31500007C300A68074802F4E06202430A60BFF34F8F06
S31500007C4000BFFDE703487047000000200CED00E090
S31500007C500400FA0530C1002062F30F2262F31F42CE
S31500007C6000B500BF130096469446103928BFA0E819
S31500007C700C50FAD85FEA417C28BF0CC048BF40F8D8
S31500007C80042BC90728BF20F8022B48BF00F8012B98
S31500007C9000BD704701468AB20AB94BF6EF61000C87
S31500007CA00E4A118008BF4FF6CE200D490880704756
S31500007CB002461088030448BF4840410011807047BF
S31500007CC010B562210548FFF7F3FF044641F20B01A8
S31500007CD00348FFF7EDFF604010BD00008ED3002083
S31500007CE090D300202DE9F24F022940F39580190028
S31500007CF005D0BDF800100529F7DB42F004028246E4
S31500007D0001268AF80020180005D08AF801301B0ADF
S31500007D108AF8023003260A9CFEF7DAF80AF806000B
S31500007D20761CB0B20AF80040761C4FF0000BDDF866
S31500007D30309007E0BAB24146504404F04DFEBE19F9
S31500007D400BF1010B0B985FFA8BF1405C002865D0B4
S31500007D5000250024A046732834DC4C2859F8048BEF
S31500007D601CBF5328622811D159F8047B4C2806D130
S31500007D70BDB24FF6FF70854236D0022434E0532858
S31500007D8032D1FDB2FF2D2FD001242DE06C2804D175
S31500007D90404604F016FE871C26E0732804D14046B0
S31500007DA004F00AFE471C1FE0A0F130010A2938BF83
S31500007DB0A0F1300718D3A0F1410107292CD2A0F178
S31500007DC0370711E00027752808BF01240AD0762856
S31500007DD008BF022406D0782808BF032402D07728DB
S31500007DE01AD1042459F8045BBDF80010B2B2B8B237
S31500007DF08218A218914205DA0EE00AF80050761CA5
S31500007E002D0A641EE1B2B0B20029F6D1B9B200293A
S31500007E1096D0B8F1000F8DD1002000E0B0B2BDE8D9
S31500007E20F28F10B5434C20604348018043490A60F5
S31500007E30434A136010BDFEB50C46009309A91346CC
S31500007E400291089D02463C4E3A4F318838680195AA
S31500007E50FFF748FF00F001F8FEBD38490A68384BC5
S31500007E60108019684FF48A524C80CA8070477FB5DB
S31500007E700C4608A90092029102462F4D2D4E2988E4
S31500007E80306801930023FFF72DFFFFF7E6FF04B0EC
S31500007E9070BD38B50346294C26482568026828482F
S31500007EA02988006801B0BDE8304005F0ECB8002034
S31500007EB0EFE77FB500F028F805F039F804B070BD9B
S31500007EC00023F6E710B51B481C4B02681C681C48CB
S31500007ED000682188BDE8104005F03DB87CB50192E8
S31500007EE0144A1468154D2E680094154C3388226880
S31500007EF005F09DF876BD0022F0E77FB500F004F8A6
S31500007F0005F077F804B070BD0C4C0091256802931B
S31500007F10084901920B680A4E2A8831687047002387
S31500007F20EBE7074800687047054A13681871106840
S31500007F304171704720DC0020FAF6002024DC002086
S31500007F4028DC00202CE038B50446DFF84C532878AE
S31500007F50A04203D02146FDF79CFD2C7031BD10B523
S31500007F60DFF83843207860B900F01AF80DF0E4FE27
S31500007F700121217028B10288B2F5817F24BF007DDE
S31500007F802070207810BDC4490978012803D1012941
S31500007F90D8BF022002DD10B9012900DDD3E7704702
S31500007FA0BD480178012900DD704738B50DF0B0FEF7
S31500007FB00120FFF7E8FFBA4C2078FF281AD10DF010
S31500007FC0BBFEB0B14588FF2218212D066D0E05F0C7
S31500007FD001052570B348FFF73FFE012D0AD1FFF7D3
S31500007FE0BEFF052806DBD021AF48BDE83440FDF7CB
S31500007FF0E5BB207031BD80B5FFF7D2FFBDE801407B
S315000080000DF09ABE0C21484310B5A64C2044FF2221
S31500008010BDE8104005F0D4BE2DE9F84F8A469146DA
S31500008020A24991E82C0086B0044603A880E82C00FB
S31500008030FFF7B6FFFFF793FF0546DFF8648298F86F
S3150000804000000026974F012860D1012D62DD00F067
S31500008050B4F800285ED000210C22204607F1080C57
S3150000806002FB01F3FC5814F1010F04D01CF8033095
S315000080701C19844204D0491C0129F1DD044604E0A0
S31500008080C9B204460191FF2905D140F23111864853
S31500008090FDF794FB3AE05143029107EB010B9BF885
S315000080A00830E91ACAB24A4539BFC9B200915FFA27
S315000080B089F00090009A0BEB03005146001D04F076
S315000080C08BFC9BF80820009882188BF80820A9EBF7
S315000080D000090098D2B20419AA4213D10320FFF76F
S315000080E032FF02982A460BF1040138580DF0A6FE1D
S315000080F000F08CF8009801998244C8B2FFF782FF1D
S31500008100300050D11FFA89F000284CD098F80000B2
S31500008110012807D100F051F840B14FF4AD71624823
S31500008120FDF74CFB98F8000001281BD11FFA89F1D6
S3150000813009192846B1FBF0F800FB181090B105FBB1
S3150000814018181FFA89F050445FFA88F5491B039105
S31500008150694201442A4604A804F03EFC8DF81450F6
S31500008160A9EB05091FFA89F050B10320FFF7EBFED2
S315000081701FFA89F2514620460DF060FE00F046F8DF
S31500008180300010D1039810F1010F0CD000200C2103
S31500008190C3B24B43FA5812F1010F08D0401CC3B2C8
S315000081A0012BF5DD0126304607B0BDE8F08F0C2225
S315000081B003A9F818FEF7B2F8F5E72846B4FBF0F184
S315000081C000FB1140704770B53548017801291BD175
S315000081D0FFF7E6FE0024334D0C266643A85910F13E
S315000081E0010F0ED00320FFF7AEFEFFF7B8FE0246E2
S315000081F0A819011DA8590DF021FE00F007F830005E
S3150000820003D1641C012CE7DD002070BD0646022068
S3150000821099E670B504460D461646FFF7C1FE0420E2
S31500008220FFF791FE3246294620460DF013FE04461E
S315000082300220FFF788FE204670BD2DE9F041064674
S315000082400F46FFF7ADFE0520FFF77DFE39463046A7
S315000082500DF00CFE80460220FFF775FE0024114D3E
S315000082600C206043285810F1010F07D0B04205D307
S31500008270B91988423CBFE0B2FFF7C4FE641C012C6A
S31500008280EEDD4046BDE8F08180B5FFF789FEBDE82A
S3150000829001400DF0F7BD00005DFD00205EFD0020F1
S315000082A0B3D30020A8E1002048EB030054EB030001
S315000082B080B5FF20FCF71BFFFF2003F0D6FFFF2051
S315000082C00EF0CEF905F058FD00F06AF8FDF70CFC4B
S315000082D000207B49088001BDF8B500F093F80098AE
S315000082E005B000F0010000BD18B587B001A96846C9
S315000082F007F0C4FA9DF80F00724C0822A070BDF872
S315000083000C0001A92080201DFEF708F89DF8140036
S315000083100022002160732046FDF7E7FB0020684934
S31500008320088008B010BD80B5684607F0B1FA9328FA
S3150000833009D1654801680A78012A8DF8002004BF32
S3150000834002218DF800109DF8000002BD78B58FB0AF
S3150000835004460D4616462C2104A8FDF761FB8DF850
S315000083601240ADF8106005A8FDF782FB00F04AF850
S315000083700098ADF83600FFF7D6FF8DF8380000F00C
S3150000838044F8294604A80EF0C4FC010004D14C4967
S315000083900A8842F480720A8010B070BD0FF06EB881
S315000083A01FB503240FF0A8F800B107240FF0A6F8B4
S315000083B008B144F0080420460FF063F843480FF074
S315000083C06AF843480FF06AF800F01CF80098C107F5
S315000083D017D53D4802681078012808BF02200EF024
S315000083E02BFD0FF08DF800F00DF8009840F080009E
S315000083F0009068460FF038F800F007F8032003F005
S3150000840013FD1FBD68460FF025B880B58EB004A8D1
S315000084103049282204F0E0FA07F05CF808B10020A1
S315000084200BE0684603F0DFFC010006D104A8FDF767
S315000084305AFB04A968460EF0C6FC0FB000BD10B585
S315000084401F48018841F40071018003F051FC0128A6
S315000084500CBF012400240FF0FDF8002C08BF0028F3
S3150000846004D00EF0BFFFBDE8104021E710BD1FB5D8
S31500008470044613480088810504D5912C1ED1FFF7C8
S3150000848017FF1FBD10F08F0F04D0902C16D1FFF7E9
S315000084902BFF1FBDFFF7B6FF902C0FD10098C10729
S315000084A00CD5420852000092002101910291ADF8CC
S315000084B00C1068460EF0D8FF0FF075FB1FBD0000CC
S315000084C030FD0020FCF4002020EA00200088100285
S315000084D00070EF0530F8030080B5FFF75FFF00F08E
S315000084E0FE00BDE802400EF0CCBF10B5FFF756FF08
S315000084F040F001040FF000F808B144F004040EF057
S31500008500FDFF08B144F008042046BDE810400EF017
S31500008510B8BF70471CB5DFF8A04A0A212046FDF710
S315000085207FFA6021DFF8D00CFDF77AFAA020608090
S31500008530052120208DF80410009001AB1022212186
S31500008540F220FEF71BF913BD0020DFF86C1A00B508
S3150000855008704FF0FF3187B00491002100238DF899
S315000085601800039002900191009304AA0FF064FF93
S3150000857007B000BD18B5DFF8404A207A87B0C107BA
S3150000858012D54FF0FF32002104928DF8181010F02A
S31500008590CAFC002000210023207203910290019062
S315000085A0009304AA0FF048FF0020DFF8501C087063
S315000085B008B010BD80B5FFF7C7FF0020DFF8401CEC
S315000085C0087001BD2DE9F04700F00108C0F3420430
S315000085D08946924606094509DFF8280C016806F027
S315000085E0010605F001050A685079F22826D1DFF860
S315000085F0C879387820B110F033FDF98888421DD14A
S31500008600B8F1000F18D010F02BFDF8800120A02142
S31500008610E207387079807C7046BF4FF47A7101FBAF
S3150000862009F1DFF8E41B7D71DFF8D40BFCF769F87C
S3150000863026B187F804A001E0FFF786FF0120BDE818
S31500008640F087002070472DE9F34F8FB00746154697
S315000086509946DDF8848011210AA8FDF7E1F9780A28
S3150000866000F0030AC7F341108DF81800F80A00F06D
S31500008670070BDFF8980B002438400828DFF8840B36
S31500008680016808BFA0460A79042A08BF01242B0006
S315000086901A9D08BF0AAB05B90AAD1F9E06B90AAEF8
S315000086A0109ACDF8009007F0070107A810F08EFD8C
S315000086B0002851D000F0F3F84ED1BAF1010F4BD09B
S315000086C09DF82400C0B1022846D10022082107A83F
S315000086D003F07AFB00283FD107F0180018283BD09A
S315000086E0ABF10500022837D39DF8180068B9F806E3
S315000086F00BD48CBB85202DE0079868B310F1070FCB
S31500008700EAD310F1010F27D1E6E71E98BDF88010D5
S315000087101B9B0490BDF870009DF8182001910090F5
S31500008720CDF814800396029507A9384611F0CDF8C6
S3150000873038B1DFF88408417888070DD5FFF704FFC4
S315000087400AE0380708D510F0ECFDFF2808BF002C1A
S3150000875002D18920FDF744FC012011B0BDE8F08F5D
S315000087602DE9F8418FB00646884617461D46169CE9
S3150000877011210AA8FDF754F904B90AAC00F08FF8E4
S315000087804ED1189B2946179A199DF02B49D0F32BE9
S3150000879067D100228DF82420079200293CD111F0E0
S315000087A008FB80453AD1DFF8545A2878DFF80848A4
S315000087B010B1207A81076ED506F08EFE0B3840F098
S315000087C0100004AA01238DF81000002101920093E5
S315000087D003910291F32307AA01200FF02DFE012039
S315000087E0207206F079FE07F10B0188420BD00120BA
S315000087F00B3700FA07F10022032010F025FB207A40
S3150000880000F0FD0002E0207A40F00200207241F202
S3150000881088312846FBF775FF01203DE0FFF7AAFEE9
S3150000882039E016F007008DF8180008BF049101D052
S3150000883000F03CF811F0BDFA804509D10020002176
S315000088406A1C0390029101922B780093F0231EE09C
S31500008850002000210023039002910190009304AAB6
S3150000886017E0F72B03DAA3F1B000102813D216F0A5
S3150000887003008DF8180008BF049101D000F016F827
S315000088800021681C0391029101902C78009404AA9F
S3150000889001200FF0D1FD002010B0BDE8F081DFF817
S315000088A0640901680A685079F228704702218DF838
S315000088B018108DF81920216804A8016061684160CC
S315000088C07047002070472DE9F047044662688846E5
S315000088D0002192B24046FDF711FC207C08F102050A
S315000088E030B9A26800212846FDF70DFC2D1D07E0D2
S315000088F0022805D1082204F1080100F09EF8083587
S31500008900207C022804BF607C05F8010B616888049E
S3150000891003D5A28A00F096F8AD1C606841040FD515
S31500008920A07D002105F8010BA26928462D1DFDF743
S31500008930EAFB102204F11C0100F07FF8103507E075
S31500008940800605D5A26900212846FDF7DCFB2D1D12
S3150000895020794FF00C0A41060ED500F05EF800F0C3
S3150000896061F805D100F067F800F06AF800F04EF8FB
S315000089707F1CF9B20229F2DB6068C10517D500F049
S315000089804CF8FAB20AFB02F204F12C018E18337885
S31500008990022B08D1728800F055F8B288AD1C00F0A1
S315000089A051F800F033F87F1CF9B20229E9DB04F133
S315000089B04400017805F8011B227902F01802182AF2
S315000089C01CBF407805F8010B6268100403D5120C31
S315000089D000F038F8AD1C6068C10312D500F01DF830
S315000089E000F020F809D100F026F800F029F899F8EF
S315000089F00000AD1C0A3089F800007F1CF9B202297C
S31500008A00EEDBA5EB080188B2BDE8F08799F8000017
S31500008A10AD1C401C89F8000070470027A94605F8E0
S31500008A20017B7047FAB20AFB02F204F12C018E18A0
S31500008A303378032B70470822B11C2846FDF76EBC1D
S31500008A407289083500212846FDF758BB2DE9F84FF5
S31500008A500E46B6B000F00701C0F3C1008DF8041051
S31500008A60009090469B46112107A800250024FCF79C
S31500008A70D7FFDFF890170968B8F1000F087908BF2B
S31500008A800DF11C0800284DD109684879F2283CD11F
S31500008A900FA9E0B210F0CAFB002836D19DF83C00C1
S31500008AA0FF2818BF6D1C641CE0B20428F0DD9DF899
S31500008AB00001EFB2DFF8244906900098DFF820990C
S31500008AC0DFF820A960BB9DF804103246CDF800B04F
S31500008AD043460CA810F07AFB002800F085800CA80D
S31500008AE010F0FBFB0546FF2822D000200122FF23C1
S31500008AF005900490039202930197009000F07AF893
S31500008B000FA9284610F092FB002871D1208809EBA6
S31500008B1000010FA8FFF7D7FE21884018208061E0EA
S31500008B200098012860D19DF80001EDB2A84209D352
S31500008B30002105910491039106998B2202910197D8
S31500008B4000924DE00020059006980021FF22049136
S31500008B50039202900197009153460B222121012096
S31500008B600026FFF784F90027B3460FA95FFA8BF0BA
S31500008B7010F05CFB00283BD19DF83C00FF2819D083
S31500008B809DF80001761CF1B2884213D221A90FA8E4
S31500008B90FFF799FE2588804608EB050152290FD27A
S31500008BA0424621A909EB0500FDF7B8FBA844A4F845
S31500008BB000807F1C0BF1010B5FFA8BF00428D4DDDB
S31500008BC089F80670FDF70AFA74280DD10020059081
S31500008BD0039006980021F6B2049102900196009146
S31500008BE000F008F8FDF7FAF9012037B0BDE8F08F7C
S31500008BF00020FAE753460B2221210120FFF737B95F
S31500008C002DE9F04F0024F228A7B04FF0000B08BF63
S31500008C1021294DD1112A02BF802B3098002847D137
S31500008C20DDF8C4A0BAF1050F42DD112003F041FEC4
S31500008C30DFF8A8773D880026DFF8A4972D1DADB292
S31500008C40A8466946F0B210F0F1FAC0B99DF80000E6
S31500008C50FF280FD012A96846FFF735FE04462819EB
S31500008C6082450EDB224612A909EB05006519FDF7C0
S31500008C7055FBADB2761CF0B20528E2DB03E000201E
S31500008C8017E04FF0890BA5EB08055FEA0B0009D149
S31500008C90002003F0FFFD432003F0FCFDA8B203F023
S31500008CA008FE01E003F0F6FD388801242D183D800A
S31500008CB0204627B0BDE8F08F2DE9F04FBE4D28784D
S31500008CC089B070B11C46207A002804BF2368002BA7
S31500008CD007D0179EE02E18BFE22E02D0159BDB07A9
S31500008CE003D5012009B0BDE8F08FDDF84C80129F56
S31500008CF091468A46834611F05CF8069018991B98AF
S31500008D0008919DF8681005901698CDF81CA004915E
S31500008D10039602904BEA07100197CDF8009040EABF
S31500008D208816637A2168224646F4006010F0F0F94E
S31500008D30FFF7F7F80646F22030717071052011F042
S31500008D402AF9687918B1E98800F042F90BE0F08851
S31500008D50A9F10C05B57240F00200F080204612F031
S31500008D60F9FE00F086F800F036F9BAE72DE9F84F7B
S31500008D708AB005461C46207A002804BF2368002BCB
S31500008D8076D030B9236813F1070F02D313F1010F20
S31500008D906ED102280AD10023D8B2205C18B95B1C18
S31500008DA0DEB2082EF8DBDBB2082B61D0169800285D
S31500008DB05ED1179E237AF007159848BF43F0080343
S31500008DC07E2D18BF7F2D05D143F4007320B143F4E7
S31500008DD0807301E043EA8013149DDFF8DC9199F873
S31500008DE005002F0147F400673B43ADF826300F46D8
S31500008DF08DF82420DDF868A0DDF87080DDF874B009
S31500008E0090B110F0D6FF00F03AF8F0074CBF2020E2
S31500008E10052011F0C0F8FFF784F800F0D5F8B9F88E
S31500008E20061000F0D5F821E010F0C3FF00F027F897
S31500008E30FFF777F800F0C8F89DF82410A1F10C05AB
S31500008E40C188857241F00201C180F00706D57F090D
S31500008E5000F0B4F83F0E2037B8B200E0052011F05C
S31500008E609AF8204612F076FE00F003F800F0B3F808
S31500008E709DE00146EAB24FF6FD70FFF750B8069046
S31500008E809DF864001899CDF820A003909DF8240061
S31500008E900797CDF814B0CDF8108002910195009097
S31500008EA0637A2168BDF82600224610F031B938B53C
S31500008EB000E038B58AB0179C9DF8585009949DF883
S31500008EC054400895149D07949DF84C400695129DB4
S31500008ED005949DF8444004959DF8405003949DF8F0
S31500008EE03C4002959DF8385001940095FFF73EFFEF
S31500008EF00BB030BD2DE9F84F8AB02F4E3478002CD8
S31500008F001EBF347A04F00304012C50D008257E28B5
S31500008F101598149C08BF4FF40275800140EA0410AE
S31500008F208DF824200F4640F400602843ADF8260053
S31500008F307079DDF860B0DDF86480DDF868A01C9D0E
S31500008F40DDF8749070B110F034FF00F047F8FEF7CA
S31500008F50E8FF00F039F8202011F01DF8F18800F044
S31500008F6037F822E01E4610F024FF00F037F8FEF72F
S31500008F70D8FF00F029F87F099DF8241000F01EF8AC
S31500008F80A1F10C04C1883F0E847241F00201C18038
S31500008F902037B8B210F0FFFF304612F0DBFD014675
S31500008FA0E2B24FF6FD70FEF7BAFF00F014F80120AA
S31500008FB00BB0BDE8F08F000024E3002007F00607A1
S31500008FC0C7F103077F077047F221017141717047AE
S31500008FD00020FEF790BF002010F0DDBF06909DF840
S31500008FE02400CDF820A007970090BDF82600CDF804
S31500008FF014900495CDF80C80CDF808B001940023A8
S315000090000022002110F084B82DE9F84F98B0299875
S3150000901091460C4602469A46FF2A00F0E88048210F
S315000090204A43DFF8C43319680E1DB3580D1D06A94F
S3150000903043F40073AB5043F48063B35010F0F6F87A
S31500009040002840F0D4809AF8086000214FF00C0800
S3150000905008FB01F206A8104490F82C00002814BF63
S31500009060032846F0080603D0022808BF46F020066B
S31500009070491C0129ECDD9DF81C00279D259F010652
S315000090802299239848BF46F0100646EA8116E02D3D
S3150000909046EA002646F4A046B6B218BFE12D03D133
S315000090A0DFF84823107818B1F80748BF46F4006681
S315000090B0DDF898B001B9CB4610F07BFE059404901C
S315000090C02B989DF8A8106409039002910195CDF89C
S315000090D000B004F006049AF80930DAF80010C4F17A
S315000090E00304640752463046240E0FF0DBFF20349B
S315000090F0ADF800404FF6FC75002408FB04F106A805
S3150000910000EB010B0BF12C063078002818BF032862
S3150000911017D1FEF706FFFFF757FFF8074CBF2020D1
S31500009120052010F038FF7089A84206D30BF12E00F7
S3150000913010F0B0FDA84238BF70817189FFF748FF73
S3150000914025E0022825D1FEF7ECFEC288FFF73CFF9A
S31500009150A9F1090142F002028172C2809DF85C10F9
S31500009160C172F8074CBFBDF80000052010F013FFD0
S31500009170B0884FF6FF71884204BF504612F0EAFCF1
S3150000918001467088A9F10902D2B2FEF799FEFFF7EF
S3150000919022FF641C012CB0DD9DF81C00010626D5BB
S315000091A0FEF7BFFEFFF710FFC18880F80A9041F076
S315000091B00201C1809DF85C10C172F8074CBFBDF872
S315000091C00000052010F0E7FE0798810448BFBDF8AF
S315000091D02C8003D4504612F0BDFC8046504612F057
S315000091E0B9FC4A464146FEF76BFEFFF7F4FE012046
S315000091F019B0BDE8F08F000030E3002098E30020AE
S3150000920090E3002050F400200071020008000200E4
S31500009210012070472DE9F84F06460C467348017A3F
S315000092209EB01546C80703D59DF8B410E32920D192
S315000092309DF8A0000B93002802BF6C49087800280F
S3150000924010D1184610F049F8FF280BD00CA90FF0E2
S31500009250EDFF00280DD10D9841044CD49DF8460031
S31500009260002806D1002E8DF8286018BF7C2E05D068
S315000092707F2E7CD15D490878002878D05B49087834
S315000092808DF82A408DF82950299C2A9D2B9EDDF8C1
S31500009290B090DDF8B8A02F9FDDF8C080DDF8C4B02F
S315000092A000285CD0280003D000F075F8FFF704FD15
S315000092B09DF828007F2804BF9DF8A000032805D14B
S315000092C000F05EF800F07BF8032141E09DF8B40061
S315000092D0E02826D01AD3E2280ED002D3E32810D0F5
S315000092E014E09DF8A010E120059000910B9B00F082
S315000092F059F8FFF7DCFD3AE000F04FF8FFF7D9FD2B
S3150000930035E000F04AF8FFF7F5FD30E09DF828104B
S315000093107C2915D1A0F1E4020C2A24BFB03810280C
S3150000932021D29DF8B4009DF8A0100590CDF824B088
S31500009330009100F03FF800F01DF89DF828000BE0C2
S315000093407F2910D100F01CF800F039F89DF8A01024
S31500009350009100F00FF87E20FFF708FD07E09DF86A
S31500009360B400E22803D000F016F8FFF74DFE1FB058
S31500009370BDE8F08F0B9B9DF829209DF82A107047B9
S315000093809DF8B400CDF824B0CDF820800797CDF82D
S3150000939018A0059070479DF8B4009DF8A0100590A0
S315000093A00B9B00919DF829209DF82A109DF8280016
S315000093B0CDF824B0CDF820800797CDF818A0CDF8C9
S315000093C01090039602950194704728B90748017AD0
S315000093D0C80748BFFFF7CEB87047000018FD002049
S315000093E0CCE90020C0EB030084CE002024E300205B
S315000093F0912800D0704780B500F061FE18B9BDE82D
S31500009400014012F069BC01BD1CB5059C1CB1049C51
S31500009410009403F030FE13BD30B50246DFF8280A8B
S315000094200023DFF8285A03E0D45C5B1C60406843E5
S315000094308B42F9DB30BD024608460E2A04DA1423B5
S31500009440D2B23021FDF718BD70470A460E2804DA5D
S31500009450C1B214233020FDF740BD7047902800D0DC
S31500009460704780B512F05EFCBDE80140BAE330B546
S3150000947085B00025DFF8D84900228DF8012069461D
S31500009480A8B2FFF7D8FF9DF8010060B19DF8000073
S3150000949028B9AAB2182042430121A01801746D1CF4
S315000094A0A9B20E29E8DBDFF8AC09058000F09AFBCB
S315000094B005B030BDDFF89C09008870472DE9F04FF4
S315000094C000249FB0A046A246A146A34668E0D0B2BB
S315000094D0092861D257E07FA10091BDF81C20BDF894
S315000094E016100A234FF0FF09FEF7A5FC9DF815009C
S315000094F04FF48A51E1802071BDF81C8000260AA92C
S31500009500F0B204F0B9FA002802BF9DF829009DF8D0
S315000095101510884202BFBDF82A00BDF81610884211
S3150000952009D19DF835109DF828002246FCF7BCFDB0
S31500009530484598BF8146761CF0B20228DFDDBDF8AB
S31500009540180003F0B6F99DF8100003F0A3F92946B8
S315000095500EA803F0DEF900203874FCF7C9F838606D
S31500009560002000909DF810000EAB2A46412818BF37
S315000095704228ACD1691EC9B20DF13900FFF74CFF84
S3150000958000906B4604220020C7E90200D2B21946B9
S3150000959007F10800FCF7C2FE0BF101001FFA80FB81
S315000095A0DFF8B00801888B4576DA05A95846FFF73B
S315000095B042FFFCF79DF8182202FB0BF2DFF8901829
S315000095C08F183D68451B9DF814000028E4D19DF8CE
S315000095D015000028E0D0FBF7EFFC0028DCD0BDF832
S315000095E020004FF47A7148438542D5D3387C30B990
S315000095F0BDF822000028CFD048438542CCD304A82A
S315000096000390BDF81C0041220EA902920191009020
S315000096109DF81A30BDF81820BDF816109DF81500F3
S31500009620FDF727FB0028B7D19DF81000FBF7EFF9EF
S315000096300028B1D19DF8100041220EA906F000FEC7
S315000096400500A9D0EA1CE4B120799DF8153061889F
S31500009650834204BFBDF816308B4210D19DF81A30F4
