S01200005A425F4C696768745F5A432E733337F3
S3150000400020DC002053FC02002DC30000D5F802007E
S31500004010A70A0A010042000004180FAC106AD80073
S31500004020000000000000000000000000000000008A
S3150000403000000000BC1A03000000000000000000A1
S315000040400000000000000000FFFFFFFFFFFFFFFF72
S31500004050FFFFFFFF00600B000000000000000000F3
S31500004060FFFFFFFFFFFFFFFF8000000000000000D2
S31500004070000000000000000000000000000000003A
S3150000408000000000000000000CFE00200CFE0020D6
S3150000409020DC0020A06A0300E4FC0200C0D200205D
S311000040A0E010002000E00B000000000013
S3150000420020DC002053FC02002DC30000D5F802007C
S3150000421081EE0100D9F80200DDF80200000000007E
S3150000422000000000000000000000000077AB000066
S31500004230E1F80200B39800009FCD0000A7CE000071
S31500004240E9F80200E9F80200E9F80200E9F80200DC
S31500004250E9F8020069F0010075690000E9F802005A
S31500004260E9F80200E9F802002FCD0000E9F80200A3
S31500004270E9F80200E9F80200E9F80200E9F80200AC
S31500004280E9F80200E9F80200E9F80200C7CE0000EA
S31500004290E9F8020011F80200E9F80200E9F8020064
S315000042A0E9F80200B7F80200A9F80200E9F80200EE
S315000042B0E9F80200E9F80200E9F802005BB9020039
S315000042C023B9020021B90200E9B3020059B902007C
S315000042D025B9020029B9020027B9020035D3020028
S315000042E091B90200E9F80200E9F80200156200003F
S315000042F0E9F80200816C0200E9F80200FFD4000030
S31500004300E9F80200E9F80200E9F80200E9F802001B
S31500004310E9F80200E9F80200E9F80200E9F802000B
S31500004320E9F80200E9F80200E9F80200E9F80200FB
S31500004330E9F80200102B70B54A4A4A4B4B4C2468E8
S3150000434065070CD4C60701D41C4209D100EA04054E
S315000043508D4208D0521EF1D16FF0020070BD2EE0E2
S315000043606FF00108301D1C42FAD1002070BD70B5F7
S315000043703F4D6860E8680E46410700D51FE056F8D5
S31500004380040B141F0208101D241FA86044B1082145
S315000043900820FFF7CFFF0100F4D00421296070BD8B
S315000043A0042028600021211612C4162304D10C20F3
S315000043B00ABDE87040BCE770BD4FF0FF30563013C1
S315000043C041F67131284C0122284BE568E1621A60FA
S315000043D0606002262636300B2D0CFFF7A8FF05F08D
S315000043E001050100033C201CFFF7A0FF01211F4A25
S315000043F011600DB10021E16270BD2DE9F843184F3F
S315000044003D68894614464A200A80462D0C396201C9
S3150000441022154B00203A10251A6002E0B044B14440
S31500004420A41B7CB108F50056760B7603A6EB0806AE
S31500004430B4424946404638BF26463246FFF7919E6B
S315000044405003EBD00121085A10133962BDE8F283FC
S31500004450000080969800020001001C000340100432
S31500004460130C1004000120034000000038B5044678
S315000044700D46104600F04FF800202070A847BDE812
S31500004480314000F056B8002219491A48EEE70022DA
S3150000449019491A48EAE780B5012000F07DF9184865
S315000044A000F00EF91749087001BD80B500F08CF9CF
S315000044B0012805D013480078BDE8024000F0EAB8AC
S315000044C001BD80B519B900F061F8002002BDB1F157
S315000044D0004F02D200F065F8F7E7022002BDB1F501
S315000044E0000F3CBF0902FFF7ECBF02207047000037
S315000044F04DAB01001CE600206FE5010024E600201C
S315000045007CDD002007FD0020022070470C480D4985
S3150000451008600020704700B1702070470020704787
S3150000452080B500F013F8FF2801D1A32002BD0020BA
S3150000453002BD00207047704700BF034800787047EF
S31500004540E6660300FCE600207CE6002080B500F06D
S315000045504DFCFF2818BF002002BD002101707047E6
S3150000456000F014B8FFF7BBBF38B54478456800F0D3
S31500004570DDFD0C214C438B498B4B0A59521B9A4249
S3150000458038BF0D51BDE8324000F0D6BD10B5044627
S3150000459000F00AFE6060042020702046BDE810404E
S315000045A0E2E738B504460D4600F0FEFD2D186560BD
S315000045B0012020702046BDE83240D5E710B50446FC
S315000045C0207860B1042806D000F0EEFD6168764BD5
S315000045D0421A9A4201D2002010BD081A10BD4FF0AF
S315000045E0FF3010BD70B5044600F0DEFD054600F054
S315000045F09DFD064660686FF0004100F02DF84519F4
S3150000460025603046BDE8704000F096BDF8B5054619
S315000046100E46144600F0C8FD024600239CB1FF205A
S31500004620207010E0087860B1042811D048685E4F09
S31500004630111AB9420CD3801AB04202D2064604B10E
S3150000464023705B1C083529680029EBD13046F2BD82
S3150000465004B123700020F2BD0022D7E770B50546ED
S3150000466000F0A2FD0646514C10E0017869B104291C
S3150000467004D041684C4A711A914206D20423037051
S31500004680206069688847002020600835286800286F
S31500004690EBD170BD10B5044600F086FD0C225443E4
S315000046A0404A414B1159401A984207D21444606857
S315000046B0FFF7D4FF2046BDE8104093E710BD000089
S315000046C070B504463A4E3B4A70781378984204D344
S315000046D05FF0F60138A000F0CDFD75780C20314A68
S315000046E02B464343691C7170D11801264C600E722B
S315000046F000E0457054F8080B0028FAD10846FFF789
S3150000470071FF284670BD0000F8B50C244FF0FF314C
S3150000471060430091234D05F1080100220A54244EFE
S3150000472096F8000020B300F09FFE20B940F22F114A
S3150000473021A000F09FFD00F037FD02460023DFF8C0
S3150000474068C005E00098814288BF014600915B1C65
S315000047507178D8B288420FD260432958571A6745F4
S3150000476006D305F10807385C891A08B90029E9D18A
S3150000477000F087FE0020F2BD684600F09DFE10B9ED
S31500004780684600F034FD0120F2BD0C214843054B7C
S3150000479001221844027270470549087070470348A1
S315000047A000687047F8F500200100008034F600200C
S315000047B005FD00200F6703006576656E742D636F37
S315000047C06E74726F6C2E6300024800787047014960
S315000047D008707047ABFD0020DFF814190988DFF870
S315000047E01409007882B0ADF80610DFF80C190978C4
S315000047F08DF80300DFF804098DF802100021ADF8EA
S31500004800001000880121DFF8F8281170BDF8062095
S315000048109DF80310ADF80400DFF8E80842809DF823
S3150000482002200170BDF8041082719DF8012081807C
S31500004830DFF8D41801EBC2039DF800100122836053
S315000048400173427302B07047DFF8B408007870470E
S31500004850DFF8B01801EB0010407B00F00100704754
S31500004860412818BF422803D0432818BF442801D145
S315000048700120704700207047412818BF422801D107
S315000048800120704700207047432818BF442801D1F3
S315000048900120704700207047F8B515461E46069A57
S315000048A0079B044600F042FA60B1042100F078FB51
S315000048B0070007D02046FFF733FE3246294620463A
S315000048C0B84795E0F1BD2DE9FE431400064688463B
S315000048D01F461CBF0A9D002D20D0FFB128780C9BD7
S315000048E00107618820794CBF4022802200F01EFA21
S315000048F0A0B1082100F054FB814678B12079FFF77A
S315000049000FFE9DF82C0000953B460190224641463D
S315000049103046C847BDE8F743FFF70BBEBDE8F7834F
S31500004920F8B5069C16461A460546234600F0FEF9DB
S31500004930D0B121000BD1022100F032FB040013D0CC
S315000049402846FFF7EDFD31462846A0470BE010212B
S3150000495000F026FB070007D02846FFF7E1FD2246B8
S3150000496031462846B84743E0F1BD2DE9FC41089C95
S3150000497017461A460646234600F0D8F908B9862097
S3150000498016E000259CB9202100F00AFB804670B194
S315000049900A9C099D3046FFF7C3FD0B9823462A461D
S315000049A0009039463046C0470546FFF7C2FD284607
S315000049B0BDE8F681F8B504462078A5680026FFF71D
S315000049C0AFFD11E0F1B21422286851434718398827
S315000049D0207800F088FD0121384600F0E1FA010058
S315000049E01CBF20788847761C2979F0B28842E9D323
S315000049F0BDE8F140FFF79DBD38B50024DFF800574C
S31500004A000AE0DFF80007210600EB1150427BD107D0
S31500004A1048BFFFF7CFFF641C2978E0B28842F0D385
S31500004A2031BD10B5002301E0001D5B1C9CB28C4219
S31500004A3004D204889442F7D1408810BD002010BDEE
S31500004A40DFF8C816401A0C2290FBF2F20021DFF8BC
S31500004A50C00610E00288B2F57C4F28BF00F002B80D
S31500004A600846EDE7DFF8AC16401A142290FBF2F286
S31500004A700021DFF8A40692B2D3E710B50C460188F0
S31500004A80628891420DD1037B2279134209D0B1F598
S31500004A907C4F04D3FFF7E6FF2189884201D101202C
S31500004AA010BD002010BD10B514460A88E3889A424E
S31500004AB00AD10288B2F57C4F04D2FFF7CBFF2189D9
S31500004AC0884201D1012010BD002010BD2DE9F74F0D
S31500004AD082B004469A460025002703E0C888451997
S31500004AE07F1CFFB2DFF818160A78974280F0D8804C
S31500004AF0DFF8100600EB07102378027881689A42E7
S31500004B00ECD10091407BC107EAD54FF0000804E0E4
S31500004B10B9F80A00451908F1010800995FFA88F00A
S31500004B200A799042DCD20A685FFA88F11420484379
S31500004B30214602EB00094846FFF79FFF0028E7D011
S31500004B404FF0000B07E030790BF1010B10F0300F3E
S31500004B5004BFF0784519B9F808101FFA8BF088429F
S31500004B60D9D21FFA8BF20C21D9F804004A438618D1
S31500004B70224631464846FFF796FF0028E3D00398C1
S31500004B802746344600B104602079810611D5DFF846
S31500004B907C05002105E00279930644BFC2785118CE
S31500004BA00C30A042F7D3DFF8740589B200EB010B95
S31500004BB004E0DFF86C15ADB201EB050B0E9E049D0B
S31500004BC03046E6B121464846FFF744FF02462388B1
S31500004BD079883878A84600F082FC00B32079C106AF
S31500004BE02BD5002E214648461BD0FFF733FF0095F4
S31500004BF0034679883878224600F088FC51E0002D7B
S31500004C004FD021464846FFF725FF0246238879887C
S31500004C103878D846AB4600F060FC0028DED17E200E
S31500004C203FE0FFF717FFE178009503460191798889
S31500004C303878224600F068FC33E05FEA0A01A07883
S31500004C4008BFE178412818BF422808D043280DD173
S31500004C508A1E92B24146584601F064F81EE04A1E8A
S31500004C60D2B24146584601F043F817E04428EFD047
S31500004C703EB95FEA0A0004D0E078824538BF892051
S31500004C800FD3E178B8F1000F03D1584601F044F98B
S31500004C9004E00A464146584601F042F9002000E089
S31500004CA0862005B0BDE8F08F2DE9F8430546894614
S31500004CB017469846002603E0217B0A0615D4761C83
S31500004CC02979F0B288421DD2F2B2142328685A43D9
S31500004CD0841820884845F2D1390006D0802FEBD0C1
S31500004CE0402FECD1217B4A06E9D5B0F57C4F07D39E
S31500004CF02046FFF7B7FE404518BFB8F1000FDED1DA
S31500004D00204600E00020BDE8F283134680B507E0A8
S31500004D10134680B5402204E0134680B5802200E0A9
S31500004D20002200F003F800B1012002BD70B50C4668
S31500004D3015461E4600F05AF8FF2801D1002070BD26
S31500004D402146DFF8C04304EB001033462A4680684C
S31500004D50BDE87040A8E70023E8E770B50022DFF859
S31500004D60A43300E0521CDFF898432578AA420BDAF8
S31500004D7014011E5D8642F5D10D0003D01C44647BF0
S31500004D80E507EFD5D0B270BDFF2070BD70B50E46F9
S31500004D9004460021FFF7E1FFFF2801D1002070BD86
S31500004DA0DFF8601301EB00153200687B00F00101AB
S31500004DB014BF40F0010000206873B14214D076B1F0
S31500004DC02846FFF7F7FD0FE0142200685143761CD2
S31500004DD00844027B01882046D209FFF795FBA868A4
S31500004DE0F1B202799142EFD3012070BD0121B4E7FF
S31500004DF0DFF810130001085C7047F8B50C46FFF7A2
S31500004E00F5FF01460020FF291FBFDFF8F82202EB5D
S31500004E1001118968002915D0002214270DE01B0610
S31500004E2008E0D6B20D687E43AB19451C1B7B2600F5
S31500004E30F5D05B0648BF2846521C0D79D3B2AB426B
S31500004E40EFD3C0B2F2BDF8B50C461546FFF7CEFF5C
S31500004E500021FF281ED0DFF8AC32002203EB00133E
S31500004E604FF0140C01E0491C521C9868D6B2077921
S31500004E70BE420FD200680CFB06F62F003044067BBC
S31500004E8002D0760602D4EFE73706EDD5CEB2A642BB
S31500004E90E9D1F2BD0020F2BD0021FFE72DE9F84F70
S31500004EA086B0804601F0FFF895490A7805904FF0E4
S31500004EB0000A0492DFF84C9207E009EB0010017B30
S31500004EC0059881420FD00AF1010A04995FFA8AF027
S31500004ED0884261DAB8F1FF0FEFD04046FFF786FF50
S31500004EE08246FF2858D04FEA0A6000244FEA105B3A
S31500004EF000E0641C09F1080050F80B00E1B20279E9
S31500004F00914246D20168E3B214204343CE18328957
S31500004F1040F22D118A42A8BF01F0A2F900270CE049
S31500004F200328ACBFAA6805F10802012000900023FF
S31500004F30002101A8FFF7CAFD7F1C3189B8B288425B
S31500004F40D7D2BAB20C2170684A4385182B79D90694
S31500004F50F2D419F80B208DF804203188ADF806102C
S31500004F602879410630464CBF802140218DF8081033
S31500004F702988ADF80A102946FFF76CFDADF80C003C
S31500004F802979E8784A07CBD5AA680328CDDB1268C9
S31500004F90CBE7B8F1FF0F96D007B0BDE8F08F7047AA
S31500004FA030B5047B012200230C4205D1002030BD20
S31500004FB0144218BF5B1C5200D5B28D42F8D300696B
S31500004FC0DBB250F8230030BD5649401A8003020C6C
S31500004FD00021554825E52DE9F84F054600244FF6F2
S31500004FE0FF79A246487D35B108B9022507E00128B8
S31500004FF004D1012503E008B9082500E004250026B0
S3150000500093469846474800EB86073988594516D196
S31500005010FB782B4213D0B878404510D30CB18245AB
S315000050200DDBD9060BD53846FFF7CEFFB9781CB194
S31500005030514501DB484502D201248A468146761C49
S315000050400B2EDFDB4846BDE8F28F2DE9FE4F002729
S3150000505000284FF00108487D06D008B9022407E071
S31500005060012804D1012403E008B9082400E004243F
S31500005070B9460D9EDDF83CB08A46ADF80020019396
S31500005080284901EB89052888BDF80010884223D1FC
S31500005090EA78224220D0A9789DF8380081421BD3B5
S315000050A09AF80F00D20608D5B0B12846FFF78CFF54
S315000050B0BAF81010814201D00EE068B9BB4513D092
S315000050C0BDF8300087420FDAA9780198C1553288B9
S315000050D07F1CBFB2521C328009F10109B9F10B0FD6
S315000050E0CEDB4046BDE8FE8F4FF00008F9E7000032
S315000050F0E26603000A6703000B670300E466030029
S31500005100AAFD00207CE60020EC030300D402030085
S31500005110F803030088030300F40303008CE6002071
S315000051202CE50020A4020300D0020300EFF3118057
S31500005130302181F31188704780F3118870477047DA
S315000051407FB500F011F818B900F015F801F0DFF896
S3150000515004B070BD7FB500F007F818B900F00BF881
S3150000516001F0EEF804B070BD0446084615461E462A
S3150000517002A901F0E1B99DF82010BDF824003346DC
S315000051800091029901902A462046704780B500F0AA
S315000051900DF880B202BD80B500F008F8FA21B0FB28
S315000051A0F1F080B202BD000000BF0000E0B501F0E2
S315000051B0A8F96A4601F0F7F918B14C2128A000F0C9
S315000051C059F8DDE9000103B000BD000080B501F02B
S315000051D07AFB01F06BF820B15FF0570120A000F0D8
S315000051E049F8002002BD0120104908707047FEB53D
S315000051F004462168002501B91CE000F00CF808B14E
S3150000520000F002F8012019E00195009521680023BD
S315000052103A46301D94E7054E3570054F002301953B
S3150000522000933A46301D95E7000000004CF7002039
S31500005230E751000000F025F90020FEBD01F099FCC1
S31500005240307840B92146301D01F0ECF820688525FC
S3150000525001F089F901E00020307020602846FEBD8B
S3150000526073797374656D2D74696D65722E630000B4
S3150000527042DE704738B504460D4600F0F1FF01F0F6
S315000052808FFC2946204601F091FC2B4622466C49AC
S31500005290012001F0F6FD29462046BDE83440E7E747
S315000052A068482DE9F8430168674E4FF42068B165F8
S315000052B0026A6649F2650B68336649687166426A36
S315000052C0B266816AF166C26A3267016B7167806B8A
S315000052D096F83810B06748074CBF346CF46B01F091
S315000052E0FBFD5B4B0022844201463265A14624BF8A
S315000052F0A3F12007A742716506F19002DFF854C1B9
S31500005300DFF854E118D3A0697064E469B464B56D3C
S31500005310C5F30805062D13D1704511D360450FD28C
S3150000532000884DF64264A0420AD17068B46840F223
S3150000533001785060946003E000247464B46481468C
S315000053404648814202D2014600E0091D08469842BD
S3150000535003D20C68B4F1CD3FF7D04149081AF06486
S315000053600020002106F17C04C5B2401CC7B244F8F7
S315000053702510062FF8D3002099452CD253F8041D8A
S315000053807145F9D36145F7D2CC07F5D5002406F16E
S315000053907C0555F824708F4202D0641C062CF8D385
S315000053A0062CE9D1C4B2002C06F17C040CBF052002
S315000053B0401EC5B244F82510DEE7F16F002306F162
S315000053C07C0506EB8304D4F8804045F823405B1C3B
S315000053D0042BF6D911600146481EC9B20029ECD14A
S315000053E0B06DC0F30800032810D0042811D005289A
S315000053F012D0062813D00C2817D03B2818D11948EC
S315000054000268910719D540F2025816E040F60128C5
S3150000541013E040F6022810E040F603280DE0B8F548
S31500005420206F0AD140F6042807E040F6052804E07C
S3150000543018B14D2838BF40F607284046BDE8F2832C
S315000054406C1B030004ED00E00000002000E300E018
S3150000545020DC0020E4FC02006C4400009C000020DC
S3150000546020DC00201880014AEFF31080C00706D424
S31500005470EFF3118030288041C043C00F70470120F0
S315000054807047002080F31188704770477047704757
S31500005490704770477047704770477047704770474E
S315000054A0704770470020704770477047002070476C
S315000054B070477047002070470020704770470120F2
S315000054C070470120704770477047704770477047B4
S315000054D070477047704701207047012070470120D0
S315000054E07047B5207047704700207047002070470E
S315000054F0002070470020704700207047002070474A
S315000055000020704700207047012070470120704737
S31500005510B520704700207047002070470020704774
S31500005520002070477047B5207047704700207047CD
S315000055307047704700207047842070477047704757
S31500005540704701F0E9BC03207047704700207047A0
S3150000555000207047002070470020704700207047E9
S3150000556000207047002070470020704700207047D9
S315000055707047B5207047002070470020704770477D
S3150000558000207047704770477047B52070477047D6
S3150000559070470020704770477047704770477047E4
S315000055A080B5FFF723FCFF2804D018B9DFF874088C
S315000055B0007802BD002002BD10B50268DFF8681849
S315000055C013880B8054884C8052790A7103681A79C3
S315000055D04FF48253CB804A71026893799A06DFF8BA
S315000055E04C2844BF4FF48353CB808169137839B973
S315000055F0C088DFF83C1803F0FD030880137010BD67
S3150000560043F002031370DFF82C4881691622204606
S3150000561000F086FC0022227010BD80B50020FEF747
S315000056207AFFFF20FFF738FCFEF783FFFFF70CF940
S3150000563001460122DFF8EC0701F080FCDFF8E837CD
S31500005640DFF8F4275221DFF8F40701F081FCFEF7BA
S3150000565022FF01F08FFC01F0C7FCBDE80140FFF717
S31500005660CBB9704780B501F0C0FD20B903F0FEFA52
S3150000567008B9FFF736FFFFF77BFFBDE80140FFF7EC
S3150000568087BF70B5034600224FF6FF70DFF8B047BC
S3150000569001E0521C92B234F8325085420CD09D4241
S315000056A0F7D1B3F57C4F06DB04EBC2056E888E425C
S315000056B001D00D00EDD1104670BD10B50446FFF7C0
S315000056C0E0FFDFF880174FF6FF720B88904203D198
S315000056D02246DFF8741706E0DFF8641701EBC00016
S315000056E04268DFF868171846BDE8104003F0DBBBD8
S315000056F0F8B504462168DFF85C574879FFF776FB72
S315000057002268FF280BD100F065F8DFF84C1702205D
S3150000571003F0C9FB2068DFF84417427944E0000132
S31500005720DFF83C170B181F7B237FDFF838679F4293
S3150000573009D000F04FF82068DFF82C3700F045F864
S31500005740227F50A130E0891C085A1188DFF81C77A7
S31500005750884210D04FF6FF73994202D1B0F5004F40
S3150000576009D300F037F82068DFF8043700F02DF889
S315000057702068028817E02079022818BF032818D16C
S3150000578011895079FFF7BEFE98B92068E37C294657
S315000057904288022003F087FB2068DFF8D83600F045
S315000057A014F8206802893946022003F076FB0020AF
S315000057B0F2BDA07B0028204602D003F0C3FB01E027
S315000057C003F0F0FB00B10120F2BD31464279022020
S315000057D003F069BBE37C52882946022003F063BBD1
S315000057E07CB5144622785507DFF88C564CBF052247
S315000057F00322934204D200922A46DFF8801633E051
S31500005800089E069A30603171F280B460B3812078C8
S3150000581000F00100B0732178890801F00101F173ED
S31500005820207801213175C00800F001007075F07B09
S3150000583030B11A46204603F0A7FE317D891C31752A
S315000058403082307DB389411C3175205CB074481CB0
S315000058503075C9B2615CC4B2A342F17409D2C0B258
S3150000586000902A46DFF81816042003F016FB0020E5
S3150000587076BD0798B06100F016FC3077012076BD42
S3150000588000000000256400002DE9FE4F81460E460B
S315000058909246DFF8F0759B460D9D3846DFF8E81511
S315000058A0202203F097FEBDF8300002970195009084
S315000058B05B465246314648460024FFF791FFDFF823
S315000058C09085002800F0B680C8F80070B97CDFF833
S315000058D0BC25DFF8BC351170187800283AD003F0E3
S315000058E011FF0246DFF8AC15042003F0DCFA386835
S315000058F0BA89418800914379DFF89C15042003F0AA
S31500005900D2FA042003F08AFA20B13868398A40882E
S31500005910FFF7D3FEF87B28B13A8ADFF8801504201A
S3150000592003F0C1FAF87CBB7CDFF874150090B86808
S315000059300278042003F0B7FA397DBA89B8680123E2
S31500005940521A014492B2042003F0F4FE5EA1042030
S3150000595003F0A3FA3846FFF72FFE384603F090FF10
S31500005960002834D1ADBB042E18BF052E03D0022E5D
S3150000597018BF032E01D1012200E00022F988386801
S3150000598001910121438800930388F87C00F060F9B7
S3150000599010B3386881798A061ED44288DFF8041568
S315000059A0022003F07AFADFF8004501202070002279
S315000059B00121384600F00DF938B10346DFF8EC2432
S315000059C0DFF8EC14022003F068FA002020700124AE
S315000059D030E0287D81072DD538684179FF2925D10A
S315000059E00026DFF84454FEF72FFFF1B2814221D2A0
S315000059F0F0B2FFF7FDF98146F0B2FEF729FF98B144
S31500005A0038683A8A41884846FFF77FF960B13846D8
S31500005A10FFF7D2FD386880F8059085F8049038467F
S31500005A20FFF766FE00B10124761CDCE73846FFF777
S31500005A305FFE044603F058FD1621DFF8F80303F075
S31500005A4035FF0020C8F800002046BDE8FE8FDFF8CD
S31500005A5064140878401C0870FFE700F07F00704768
S31500005A60DFF8C8130A78002814BF42F0010202F0DA
S31500005A70FE020A707047DFF840140870704780B164
S31500005A80DFF834140978012904D1018841F0400176
S31500005A9001807047022904D102884FF6BF710A407F
S31500005AA00280704778B1DFF814140A78012A04D10D
S31500005AB0DFF80C2413780B7001E0022A03D1017879
S31500005AC041F01001017070475D0000002DE9FE43B2
S31500005AD0DFF858432278D30706D5DFF8E81302200B
S31500005AE003F0DBF9002070E0DFF864130968DFF8E3
S31500005AF0385371B109688B799E0603D5EB8843F05C
S31500005B002003EB8089794B0603D5E98841F04001F3
S31500005B10E980DFF8286331784B07DFF8701347BF59
S31500005B200F78F7700B787370DFF80C7391070CD54C
S31500005B3039883246BF48FFF7F6FC814620784FF099
S31500005B40490800F0FD0020701AE0B9490C884FF6AC
S31500005B50FC739C420AD23B88019000962A46214655
S31500005B6000204FF0550803F0E5FF08E03A88009062
S31500005B703346294620464FF0420803F0C0FF8146CF
S31500005B80A87981064CBFDFF8404342A403F0BAFD72
S31500005B9002460294CDF80490CDF80080DFF82C334D
S31500005BA0DFF82C13022003F078F9DFF8281302201F
S31500005BB003F079F93A8801233146022003F0BAFD51
S31500005BC035A1022003F069F94846BDE8FE830020AE
S31500005BD07CE770B5044620790E461546002818BFA6
S31500005BE001280BD1A0680178CA0601D5300005D07E
S31500005BF0A07B002804BFE07C0B2801D1002070BDEB
S31500005C0000218D4A1180607D00B90821E07B18B91A
S31500005C10084603F07FFC06E041F0040003F07AFC3E
S31500005C20208A03F086FCA07C03F074FC0B2003F0B2
S31500005C3071FCE07C03F06EFC304603F06BFC204602
S31500005C40FFF7BAFC2846BDE870403FE70022C0E7F0
S31500005C5070B51D46A04B1C78934E012C01D03378AD
S31500005C6013B10020307070BD0B0002D10AB10020C4
S31500005C7070BD002C1EBF049C4FF657439C4206D0B5
S31500005C8003460A4621462846FFF72EFC00B10120AE
S31500005C9070BD0000000000005D00000038B5D2882D
S31500005CA052240346950608464FF6FD7148BF49241F
S31500005CB0550548BF083C150548BF083C120448BFB7
S31500005CC0A41E032B0ED8DFE803F00902060BC0B2B0
S31500005CD004F028FB02E0C0B204F04EFD014601E0EC
S31500005CE0641EE4B2084601F04EF9241AE0B232BD51
S31500005CF070B50C000546164608BF002003D0217873
S31500005D00FF2902D1FF20287070BD204603F045FC14
S31500005D10864288BF06463246611C681C00F000F9C0
S31500005D202E7070BDF8B505460C00164603D100204E
S31500005D3068702970F1BD2078FF2804BF6078FF28BD
S31500005D4002D128706870F1BD204603F02BFC07468F
S31500005D50BE42B8BF37463A46A11CA81C00F0E0F880
S31500005D602F703F126F70F1BD2DE9F041541E002BCC
S31500005D703ED0042A37DC00230026984614E0651B33
S31500005D80002814BF10F805C04FF0000C571E4D5DDB
S31500005D90A7EB0807FF000CFA07FC05FA07F74CEA21
S31500005DA003033E4308F101085FFA88F59542E6D3FE
S31500005DB0042A10DAD5000120D2006D1E00FA02F284
S31500005DC0524243FA05F1CC0746FA05F048BF1343A1
S31500005DD0C00748BF16439E4215DBB34203DA4FF0B5
S31500005DE0FF30BDE8F0810020FBE7AE42F7DB5B1C2D
S31500005DF0DDB29542F7D2651B00280CBF0026465D32
S31500005E004D5DB542F1DA0120EBE70021334A01E0AE
S31500005E10891CC9B2535C8342FAD350184078704744
S31500005E2000000000AFFD00209CE60020B4FD00202D
S31500005E3002F8002084E700204AFA0020A8E60020A5
S31500005E40F81003005EFA0020F40E03000C0F0300A6
S31500005E5080E70020680F0300880F0300A40F0300EB
S31500005E607CE60020AC0F0300D40F0300E40F030010
S31500005E70DC0F0300EC0F030010100300F40F030007
S31500005E801810030060E7002028110300BFE300207C
S31500005E90BCE30020140F03001C0F03003C0F03009B
S31500005EA0480F030034100300B0FD002084100300E7
S31500005EB05C100300C0E30020B1FD0020B2FD00200D
S31500005EC0B3FD00208C100300D8100300D01003008F
S31500005ED0B4100300E8100300BEE3002048110300DD
S31500005EE0283808288041C00F704740B11C280BD0C5
S31500005EF01D280CD01E2818BF1F2805D009E00B3915
S31500005F00102906D2002070471B29FBDB01E0092976
S31500005F10F8DB8A2070477047002201F00FB87047FF
S31500005F2062B181423ABF5318984203F055BB8018BC
S31500005F3013F8011D521E00F8011DF9D17047704774
S31500005F402DE9F0427E4E002030707E4C20683821CC
S31500005F50382503F0ABFC33787B49087822686B431D
S31500005F60D054307821680022684308444270307863
S31500005F70216868430844827000F0CEFF32782168B9
S31500005F806A430A44107200F0C7FF327821686A43F8
S31500005F900A445072317820686C4A6943014410788B
S31500005FA06B4AC8703378216817686B43C818476115
S31500005FB068490A7802763078D4F800C0664A0746FF
S31500005FC015FB07F312680CEB0301CA61634AD2F8AA
S31500005FD000902C22574309EB07020CF13407FA50C4
S31500005FE004F074FD3078216815FB00F501F13402E8
S31500005FF051594A680968BDE8F04204F0EFBF80B520
S3150000600092B06A460021002005F0C3F908B10120CC
S3150000601018E05349534A0A910B925349534A0C913B
S315000060200D9210915248534A53490990534B0F927F
S3150000603011910E936A460021002005F0CFF800B1B9
S315000060400120C0B213B000BD80B5002000F01AF8E0
S3150000605028B1002000F005F808B1002002BDFF209D
S3150000606002BD374A37481378016838204343C818B9
S31500006070807802281CBF1128432801D101207047CF
S31500006080002070472E4A2F48137801683820434372
S31500006090C818407801281CBF0228032801D1012016
S315000060A0704700207047002070477020704700201E
S315000060B070477047002070470120704770470020E6
S315000060C07047704770470020704780B500F020F891
S315000060D020B10020FFF7D6FF00B1012002BD80B538
S315000060E000F016F808B1002002BDFF2002BD10B571
S315000060F0044600F00DF848B100F019F84078012880
S3150000610018BF022802D10CB9012010BD002010BD15
S315000061100020A6E780B5FFF7FBFF30B100F007F8D7
S315000061204178032901DA002002BDFF2002BD044A9E
S3150000613004481378016838204343C81870470000A4
S31500006140F5FD00204CDF0020D9E30020DAE3002033
S3150000615054DF0020CFE3002058DF002050DF00206E
S31500006160039901009D540000D1990100C11A020053
S315000061701F980100DD310100D5720100C79B0100A7
S315000061800021002005F0DDB97047002818BF05F092
S31500006190ACBC704706F0C6B805F05DBF33B585B038
S315000061A005468DF8042002F0BBFC0446284602F0A2
S315000061B0C7FC7CB10028BDF818000FD102F01EFE06
S315000061C0FF288DF8000004BF00218DF80010CDF8DF
S315000061D008D016E0A8B106A8029012E002F00EFE62
S315000061E0FF288DF8000003AA04BF00218DF80010D7
S315000061F09DF80000BDF8181002928DF80C00ADF85D
S315000062000E10DDE901010A460146284600F0F8FEB7
S3150000621007B030BD06F08AB87FB51C4991E81C006E
S315000062206846032180E81C0001250D268DF807101D
S315000062308DF800508DF806600821242006F0BAF982
S315000062406946134806F0A6FC4FF400601149086041
S315000062500222114B1A60114C206011490A607FBD61
S315000062600B4806F086BCA52803D10021084806F095
S315000062706FBC70470B48006805E00B4908680028AA
S31500006280FCD17047C84000F0010070476828030041
S315000062900080014A84E200E018A0014A04E100E01F
S315000062A01C90014A0480014A2480014AF8B5FEF791
S315000062B03DFF0446DFF89455287830BB0021DFF80F
S315000062C090050160DFF88C351960DFF88C050180D8
S315000062D006F09AFC012006F0F8FC06F055FD0200D7
S315000062E0DFF87805026004D12046FEF725FF23205B
S315000062F0F2BDDFF86C0540F2E731002306F050FDF1
S31500006300DFF86065306001272F7020466AE0F8B537
S31500006310044684B000F02BF80CB922200EE003A945
S31500006320204600F063F89DF80C00012808BF032002
S3150000633004D000F013F8002200F023F805B0F0BDF9
S31500006340FEB504000D4616461F4601D12220FEBDAD
S3150000635000F023F800F018F800220FE0BDF82C003A
S315000063609DF828100290009701913346704700204F
S315000063700D4616461F468DF80C00704700F001F8D2
S31500006380FEBD2946204636E2BDF824009DF82010C1
S3150000639002900097019133467047F8B505460024F0
S315000063A00DB92220F2BDFEF7C1FE064600F00DFA39
S315000063B0DFF89C743868A842284608BF012400F01C
S315000063C0CBF9050003D000F089F82846F2BD3868FD
S315000063D01CB118B100F0DBF903E010B9022006F099
S315000063E081FC3046FEF7A8FE0020F2BD38B5050058
S315000063F00C4618BF002C01D1222032BD002020708F
S31500006400FEF794FEDFF848140A6800E092682AB1A5
S31500006410217819B9AA42F9D101222270FEF78CFE21
S31500006420002032BD70B505000C4618BF002C01D106
S31500006430222070BDFEF77AFE064600F0C6F96869AE
S31500006440DFF80C142060086805E0B0B121684269E5
S31500006450511821608068A842F7D106F009FCDFF8E0
S31500006460F45329682268401A90420AD206F000FCCA
S3150000647022682968101A081804E000F02FF8032093
S3150000648070BD0020206000F029F8002070BDF8B52E
S3150000649007460C46FEF74AFE0646DFF8B40300251B
S315000064A0006800E08068A8B14169C2884D19BA4207
S315000064B0F8D106F0DDFBDFF89C733968401AA84274
S315000064C005D206F0D5FB2D1A3868451900E00025DF
S315000064D0256086E700F002F81B20F2BD3046FEF785
S315000064E02BBEDFF884030078704738B5FEF71EFE32
S315000064F0044606F0BDFB05462046FEF71DFE28466F
S3150000650032BD70B5FEF712FE064606F0B1FB054633
S31500006510DFF844030488012006F0FAFB18B106F000
S31500006520A7FB0546641CFFF7D9FF2146284670BD28
S31500006530DFF828030068704730B50C46DFF82413EF
S315000065400A6882420DD3DFF8145329684FF47A7231
S315000065500023A1FB000106F023FC401C2060002064
S3150000656030BD212030BD70B5BC490E68CEB14FF4A8
S315000065707A71A1FB0045304600F083F948B13046F8
S3150000658000F07AF9024620462946BDE8704006F03A
S315000065908BBC2046294632460023BDE8704006F0F3
S315000065A0FFBB002070BD2DE9F041B04DB04CA942B3
S315000065B023D828BFA04220D2A84B1F68EFB14FF4C2
S315000065C07A78A8FB00451646384608FB015500F0C8
S315000065D058F940B1384600F04FF9024620462946A0
S315000065E006F062FC05E0204629463A46002306F0FE
S315000065F0D7FBC6E90001002000E02120BDE8F081BC
S315000066002DE9F0470546DFF84882E8070AD59248A3
S315000066100188491C018000F0D8F8D8F8000008B1BC
S3150000662000F0B5F8A80766D58A4F06F021FB3C684E
S3150000663005460026B2462C1B3BE0486984423FD300
S31500006640224608463D6043699A4209D3067991F885
S3150000665004E0764538BF01468068D21A0028F2D198
S315000066600E464846FEF768FD706900217161241ADE
S31500006670FEF75CFD8146304600F06EF84846FEF7B0
S315000066805BFD306948B1FEF751FD31698146304600
S3150000669000F033F84846FEF74FFDF26812B1316854
S315000066A03046904706F0E4FA0419641B0AF1010A21
S315000066B00546FEF73BFDD8F8001081460029BCD1FF
S315000066C00020BAF1010F04D11EB1F288022A08BFD8
S315000066D00120684A107031B14869041B4C613D6065
S315000066E000F055F802E0022006F0FCFA4846BDE844
S315000066F0F047FEF721BDBDE8F087F8B50446E0880F
S315000067000D4630B906F0EAFC85423CBF054606F068
S31500006710F7FC65614E4E3268D2B1002351698D4255
S3150000672006D229B1681A09D110792779B84205D25B
S315000067306D1A656113469268002AEFD1002B14BFCB
S315000067409C603460100005D051694D1B556101E015
S3150000675034600020A060F1BD3D4B0022196801E0C5
S315000067600A468968002918BF8142F9D1814201D0C1
S31500006770022070478168002A14BF91601960816801
S3150000678019B14A69406982184A610020704738B5D4
S3150000679030482F4C0568216848694519022006F0E3
S315000067A094FA284606F06AFA2068002100228379C6
S315000067B09C0706D4806828B1436959180229F6D384
S315000067C000E001222848027031BD10B506F050FAEB
S315000067D01F4909681F4A61B113684C69C31A9C4274
S315000067E002D3E31A4B6104E0001B106000204861ED
S315000067F010BD106010BD70B50C46059906461546CD
S31500006800049A0698317132600021B1603561F360F7
S31500006810F0803CB9F268716112B131683046904738
S3150000682095B12C46FEF782FC0546FFF7CEFF2146C2
S315000068303046FFF762FF06480168B14208BFFFF71E
S31500006840A6FF2846FEF778FC002070BDD2FD00208A
S315000068507CF2002080F2002080FD002078F20020EB
S3150000686018FCFFFF84F20020D3FD00203789410089
S31500006870F0A7C64BD4FD0020B0FA80F0C0F11F008F
S31500006880704720B1411E084201D101207047002007
S315000068907047704701463D48814202D14FF0FF30B4
S315000068A070473B4A4FF6FF7091420BD0394B01D0EF
S315000068B0994207D0914218BF994202D0364A914276
S315000068C000D00020704770B588B004A83349102264
S315000068D002F080FE0D220021684606F029FD022006
S315000068E08DF80600294C6A460021204606F0AAFDCE
S315000068F02046FFF7CFFF206B4FF6FF71E1610022C4
S31500006900ADF81220264D04A9204606F045FD0620C6
S3150000691005F010FDBDF912104A1CB0FBF2F0491C3F
S31500006920ADF8121009B22860B1F5806F02DA1D4980
S315000069308842E8D20F2005F0FDFC2D681A4EB6FB02
S31500006940F0F61A480021E6FB0501194A002306F075
S3150000695027FA184D2860002617490E70A0694021B5
S31500006960164B20F01000A061154801601960002048
S3150000697008B070BD14480068C10605D51020114A3C
S31500006980106001210C4B1970704700000080044014
S3150000699000C004400000054000400540381B0300CD
S315000069A0E8F2002081841E0000B0710B20A10700D0
S315000069B040420F00ECF20020D6FD002000E100E08E
S315000069C080E200E014A00440148004406B48006894
S315000069D06B49694A000C00040860106070470100AA
S315000069E00FD44009674A52F8202001F01F01CA401F
S315000069F0D20706D5644B53F82000C84000F00100CA
S31500006A0070470020704780B506F05EFA18B19221F3
S31500006A105E48FEF72FFC5E495E48BDE8044006F07E
S31500006A2076BB000070B506460D465B4C300030D193
S31500006A300021504801602846012D18BF002006F0AD
S31500006A405FFD6D1E032D46D8DFE805F00212142007
S31500006A5001210120FEF7A2FDFFF70CFC207010B10A
S31500006A60A520FFF700FC0120BDE8704006F048BDF8
S31500006A70022100E004210120FEF790FDFFF7FAFB5A
S31500006A80002828D0BDE87040FFF7F7BB052101209C
S31500006A901DE0207818B10121404806F059F830462B
S31500006AA0012E18BF002006F02CFD761E032E12D8EC
S31500006AB0DFE806F00207090B012006F022FD01219E
S31500006AC004E0022102E0042100E005210020BDE8E7
S31500006AD07040FEF763BD70BD38B52848416804684C
S31500006AE0244D1A200C40A4B22C60FFF778FF18B989
S31500006AF01920FFF774FF10B144F480342C600A208B
S31500006B00FFF76DFF18B1286840F40030286031BDEA
S31500006B1038B50024012808BF01240CD0022814BF70
S31500006B200328022407D0042808BF032403D005281D
S31500006B3008BF06F036FD06F06DFD0546012120462C
S31500006B4006F075FA284606F069FD06F06BFDFEF7BD
S31500006B5098FC06F0E5F906F067FD06F05BFD0546D4
S31500006B600021204606F063FA2846BDE8324006F0CA
S31500006B7055BDCDE700F3002004F3002020C40340F8
S31500006B8020E4034000E200E000E100E0EC2903001D
S31500006B9044DE0020F8F20020D7FD00200080014AE4
S31500006BA0302080F31188704706F01CBE03460A4663
S31500006BB09EA10420FFE70CB480B502AA00F02AF8D3
S31500006BC001BC5DF80CFB000080B586B007F010F93B
S31500006BD010220492964A00216A230092059103939B
S31500006BE0029101910246002395A10120FFF7E3FFE0
S31500006BF09048817902884379039101790292019341
S31500006C000091C37890F8022090A14220FFF7D3FFAD
S31500006C1007B000BD2DE9F04786B007460C46914601
S31500006C20002607F00DF900287CD106F051FD00285A
S31500006C3078D00021002007F0FFFBADF80400002803
S31500006C4070D0002101A807F021FD394602A806F000
S31500006C5045FD0746D4B900F098F8002862D1BDF882
S31500006C60040007F046FB8DF80000BDF8040007F0AD
S31500006C7028FB694606F03EFD002853D0042007F0A5
S31500006C80DBF84FE08DF808100127641C20780028F7
S31500006C90E1D0A0F130010A2904D20A2101FB06063F
S31500006CA0303EF2E700F071F800283BD1217800274A
S31500006CB002A842290ED044291AD0462925D05729A0
S31500006CC00DD0622940D0662932D06C292DD070298A
S31500006CD02ED0D7E759F8040B8DF80800D4E759F8F9
S31500006CE0041B02278DF808100904090E4170CCE731
S31500006CF059F8041B04278DF808100B0A0A0C090E14
S31500006D00437082708DF80B10BFE759F8048B40462C
S31500006D1007F006FEC2B20123414601A807F011FCA6
S31500006D200028B2D006B0BDE8F08759F8046BACE78E
S31500006D3059F8041B0123F2B201A807F002FC00284F
S31500006D4008BF0026A1D0EDE7BDF8040007F0D1FA90
S31500006D5059F8045B8046A8B2002896D007F0C9FA15
S31500006D6082460AEB0801C9B201A807F08FFC002889
S31500006D70D8D15FFA8AF00090BDF804000023AAB2C9
S31500006D805FFA88F107F00EFD7FE701233A4602A974
S31500006D9001A807F0D6BB00002DE9F84185B00446EE
S31500006DA00D469046122806D03A2808D04FF6FE71B6
S31500006DB0884226D032E0002006F0A4FB2EE001F047
S31500006DC055FF0646002008F049F80746002008F05F
S31500006DD04FF80346184A0496154892F800C00390E7
S31500006DE0482010FB0CFC1549002201EB0C00B0F802
S31500006DF0E21001920097029116A13B20FFF7DBFEFD
S31500006E000CE000224146284607F065FB0746FFF7DF
S31500006E1055F93846FEF741FBFFF754F94246294635
S31500006E20204606B0BDE8F04107F00CB85746000012
S31500006E30A8F600200C480300F5FD002080F800208D
S31500006E4042423870424242425700000042424242A9
S31500006E505742000057424257573870420000000020
S31500006E600120704780B506F04FFBC0B202BD80B569
S31500006E7006F051FBC0B202BD80B506F04EFBC0B2B3
S31500006E8002BD0CB40A4680B5014602AB034808F0C1
S31500006E9031FF002002BC5DF80CFB00000DD50000A0
S31500006EA010B50446FFF77CFE200A00280B484FF277
S31500006EB00F0108BF240204804180BFF35F8FBFF338
S31500006EC04F8F07490A68074802F4E06202430A60E6
S31500006ED0BFF34F8F00BFFDE7034870470000002057
S31500006EE00CED00E00400FA05C0D2002001468AB28B
S31500006EF00AB94BF6EF61000C0E4A118008BF4FF637
S31500006F00CE200D490880704702461088030448BF0A
S31500006F10484041001180704710B562210548FFF7CF
S31500006F20F3FF044641F20B010348FFF7EDFF604013
S31500006F3010BD00009EE30020A0E300204018491C7D
S31500006F401CBFB1F1010100F8012DF9D1704770475E
S31500006F5010B5044C20600448018004490A60044AC4
S31500006F60136010BD90E600208AF7002094E600200A
S31500006F7098E600201A48017819B101221948FFF74E
S31500006F80DDBF7047704709F02FBB70471FB5044639
S31500006F90FFF78DF8FFF789F8912C02D100F025F95B
S31500006FA01FBD902C1AD1FFF77EF80E49085C012808
S31500006FB008D003A805F03EF9002804BF9DF80C0090
S31500006FC001280BD100210322029101200092019099
S31500006FD03C230A224FF6F87109F034FC1FBD00006D
S31500006FE0CEE30020DBFD002080B55221504802F0A0
S31500006FF05DFCFF2252214F48BDE8084009F0AEBCB7
S31500007000FEB5054601F08CFD0646284601F098FDC2
S315000070109DF800102A464FF6FF741EB3019B2846C2
S3150000702021281B781ED24220434E022B09D243430D
S31500007030F01830F81230A34214D05B1C20F812303E
S3150000704010E00FD1002306EB420700FB03F637F8EA
S3150000705006E0A6451CBF0EF1010E27F806E05B1CF4
S31500007060022BF2D3334F324E37F8123036F812C0B5
S315000070709C458041C043C00FA4451CBF0CF1010CC8
S3150000708026F812C0092D18BF0B2D0AD1B6F814C068
S31500007090BF8A01EB0C0EBE45AEBFB7826144B1821A
S315000070A00CE01D2D0AD1B6F83AC07F8F01EB0C0E0D
S315000070B0BE45BDBF491E61447187778736F81210F9
S315000070C0994203D310B92846FEF739FA00201B4926
S315000070D0C6B28A5DAA4204D0401CC6B2112EF7DBA6
S315000070E0F7BD112E15DAFEF7E2FF054614480178C2
S315000070F08D4203DBDD211348FEF7BCF82220454311
S315000071001149481930F81610A1421CBF491C20F835
S315000071101610F7BD5221064802F0C8BBFF225221C5
S31500007120044809F01BBC034A22F8101070470000FF
S3150000713068F30020BCF3002034F400207C2D03000B
S31500007140CEE300206C2D030010F40020DFF8CC19EC
S31500007150C873704770B5DFF8C85929783824DFF846
S31500007160C4693068614301448A78112A04D0B42185
S31500007170DFF8B409FEF77EF828783168412214FB5F
S3150000718000F40819827070BD10B50220FEF792FF58
S31500007190FEF797FFDFF88839DFF888091C78016861
S315000071A038204443DFF8742908194178042903D1AB
S315000071B0107C401D107405E04FF47A7102F118003E
S315000071C0FDF7EFF9BDE81040FEF77CBF80B5DFF8AC
S315000071D05C0906F0F2FEDFF8E00B06F0EEFE09F0C1
S315000071E0DBFBBDE8014009F0F8BBDFF83429DFF826
S315000071F034091378016838204343C8188078332847
S315000072001CBF4328532801D1012070470020704736
S315000072102DE9FF4E0AF002F90AF04FFB002867D06D
S31500007220DFF8F84800202076DFF8040901790C30F1
S3150000723001F020FA207D18B109F0C8FB0020207566
S315000072400021217300F056F80CF0E8FB0AF059F91A
S31500007250DFF8680B00274825DFF8C468DFF860BB55
S3150000726000F1E20900F1E40A3DE0012111E0FEF738
S3150000727028FF30784FF6FF72684339F800109142C4
S31500007280F3D100220821504401F05CFD411E8941E2
S31500007290C90F94F8202002F001020A4220D030786B
S315000072A00822684339F80010ADF808100AEB00010F
S315000072B06846FEF735FE0A230A2201F02BFADFF8AC
S315000072C0640896F800C00168382010FB0CFC022305
S315000072D00B2201EB0C0000F12C0100200CF0B9FD93
S315000072E0FEF7F0FE7F1C9BF80010F8B28842BED372
S315000072F0BDE8FF8E10B5DFF828080178DFF82428EE
S315000073003820136810FB01F018444078032818BF92
S3150000731004280CD148204143DFF8A02A5018B0F8C1
S31500007320E2104FF6FF72914208BF032008D001F029
S3150000733017FC044601F01DFC214603F0B0F90220BB
S3150000734001F03CFC0CF018FE00F0B5FF0CF092FBCF
S3150000735001F075FA20B10020BDE8104003F08EBFA1
S3150000736010BDF8B5DFF8B877DFF8B047E0733978C5
S315000073703825DFF8B0673068694301448878032808
S3150000738018BF002823D0332818BF432819D100F08E
S315000073901FF83978306815FB01F542195178032931
S315000073A018BF042907D10321801C4155E07BBDE8A5
S315000073B0F240FEF7F1BEE07BFEF7EEFEBDE8F140DF
S315000073C098E721208870BDE8F1400DF042B8F1BD84
S315000073D0E37B132289A1032006F02FBD38B5DFF821
S315000073E0403701F0A5FA00214FF6FE701519A97075
S315000073F00DF0B5FB4FF6FF700DF0CDFBDFF81C4727
S31500007400FFF7E6FFE07BBDE83240FEF7C5BE0000B1
S31500007410FEB50446E07A1522029094F90A1003207C
S315000074200191238934A10093234606F006FD2089A5
S3150000743003F09FFB08B10220FEBD00F0FBFA0A44F0
S31500007440907888B9208900F0BDFC0DD00DF07BFC4A
S3150000745050B9FEF738FE38B9FEF737FE30B1DFF81F
S31500007460240B0178022901DA7020FEBD31783868D4
S31500007470694301440A79900708D50DF064FB4FF67D
S31500007480FE72904203D10DF071FE00E0002021460D
S3150000749001F088F80100CFD100F0C6FA0A7990070A
S315000074A04CBF0220012001F041F8002101200EF01E
S315000074B029F90100C0D1DFF8D01A087808B10FF019
S315000074C06EFB00220821204601F03CFC30B104216D
S315000074D020460FF0F3FB08B1A520FEBDDFF8AC0A8D
S315000074E001780020DFF8A82AE08121746261204635
S315000074F0BDE8FE40CBE10000423870574242000032
S315000075002DE9F8430546DFF88C0A03F02DFB80468B
S315000075102B46182239A10320DFF8046606F08DFCFD
S31500007520002088F8000031783827DFF8F895D9F878
S3150000753000007943702408444178032918BF0429C0
S3150000754024D00024290007D1416B91F82400E8B12A
S3150000755081F824409D2017E0FF2D06D04FF47A7065
S31500007560454340462946FDF71CF83278D9F8001005
S3150000757017FB02F701F13400C15991F8240028B92C
S31500007580012281F824209C20FEF706FE00F093FEDF
S315000075902046BDE8F28310B5DFF8F80903F0E4FAF7
S315000075A0DFF87C35DFF87C151C780A6838214C43F7
S315000075B011194A6B92F8241009B9002010BDFCF786
S315000075C0FDFF4FF47A71B0FBF1F0C0B210BD38B5D3
S315000075D0FDF7E5F80446DFF8BC1903F0C6FA0546E0
S315000075E0FF2818BFFEF76DFD00202070FFF788FF0B
S315000075F0FF2D01D001F062BA31BD00004242000009
S3150000760038B588B004460D46686916220790297C6D
S315000076100691E8890590297B0491E87A039095F90B
S315000076200A10032002912B89CDF800500BA101937B
S31500007630234606F002FC012009F0F4F9287B002815
S315000076400CBF4FF6FE700DF07EFA2B462246014621
S3150000765009B00120BDE83040ABE00000424238707E
S3150000766057424242574244002DE9F047DFF8B094B2
S3150000767099F800C08846DFF8AC643824316814FBFA
S315000076800CFC1D4682468B1C13F80C0000284BD1BF
S31500007690170049D0042F47DC0DF055FB002843D1D5
S315000076A0FEF711FD00283FD1FEF70FFD08B1042FAC
S315000076B03ADB287B032817D14FF6FE71884515D192
S315000076C0012F08BF4FF0000810D0022F2CD10DF06B
S315000076D03AFA4FF6FC71884202D20DF034FA01E014
S315000076E00DF044FD804601E0012F1DD0BAF1000FD8
S315000076F00CD0287B032838460CBF01210021012F1E
S3150000770018BF00200DF0FEFF010030D1294640468B
S3150000771000F048FF01002AD1FEF7D1FCFEF7B2FCCB
S3150000772020B1FEF7D2FC08B1702020E099F80020C5
S31500007730306814FB02F4811C085D332818BF5328F7
S3150000774003D00020DFF8D4138873384600F0EEFE2D
S3150000775000214FF6FF7001F0F1F8DFF82C180878D9
S3150000776020B1FEF7B2FC08B90FF019FA0020BDE807
S31500007770F08738B50446DFF8A45308222146281DB1
S31500007780FEF7CEFB207BDFF898330228C8BF002027
S31500007790287028789421E9730028DFF888031C787C
S315000077A00CBF012131210268382044431019817031
S315000077B031BD38B51C46FFF757FF010032D1207B9B
S315000077C00328204602D1BDE8324060E0FFF7D1FF32
S315000077D0DFF848030021818101F004FB01464009DE
S315000077E04FF0010305D1DFF8000B027803FA01F12F
S315000077F008E001F01F0140F0180003FA01F105222C
S3150000780041EAC06106200FF06BFB01000AD0DFF8E9
S315000078101043DFF8101325780B6838214D430022FA
S3150000782059198A7032BD10B50446BD4ABD48137851
S31500007830016838204343C8184078032818BF042835
S3150000784006D1E079C10744BF94F905000FF0EFFBBC
S31500007850207801F025F801F062F822896189034653
S3150000786000200FF061FC040004D09420FFF779FD9E
S31500007870204610BD9420FFF769FC0220FEF719FC94
S31500007880A64C00F00EFD03202074002010BD10B59C
S3150000789004460022082101F055FA08B1012010BD66
S315000078A00DF051F900224FF6FF7100F0B9FE217C70
S315000078B0204600F0DFFE6269E189207C0CF0A5FB22
S315000078C0974A98481378016838204343C818417886
S315000078D0012908BF0EF024FDFFF70CFD002010BDA6
S315000078E02DE9FC4100F0A6F804460A44907810B948
S315000078F00DF029FA08B1702094E009F09CF8DFF841
S315000079001C822CB10222214608F12000FEF708FB5A
S31500007910684600F0E1FF08B1932083E09DF800304F
S3150000792014227DA1032006F088FA00F0F7FE01007C
S3150000793078D19DF8000000F0F9FD327838686A4386
S31500007940411C885C012818BF022808D0032818BFEC
S31500007950042842D1002001F037F800283DD000F07D
S31500007960F4FE327838686A43411C885C032814BFE9
S3150000797004280FF0CEFCFFF7BDFC01200FF0F0FC51
S3150000798001004FD13078396868434A1C125C032ADB
S3150000799018BF042A0ED198F820309C0708D5052276
S315000079A0DFF8EC15012000F061F8010039D039E06C
S315000079B0032A01D0042A34D1084400F12C01022301
S315000079C00B2201200CF045FA00F02EF891F82C203D
S315000079D0500726D509F0C3FE23E031783868132214
S315000079E015FB01F5012441198A70002088F80D0065
S315000079F001F0F8F9400903D101F0F4F984400BE0F5
S31500007A0001F0F0F9450901F0EDF900F01F0045F02D
S31500007A101805844044EAC5640522214608200FF073
S31500007A205FFA0020BDE8F6813178386815FB01F56C
S31500007A30411970473A4E327838253A4F39686A43C9
S31500007A407047FF2212E0000038B5044610460328AE
S31500007A500D4618BF042801D0022032BD00F066FD95
S31500007A60294620465FF0FF02BDE838402DE9FC417B
S31500007A70164680462A4A0D4600F0F2FD3FD087782A
S31500007A80022F07D0032F3AD15FEA080102D100790D
S31500007A90810734D4332001F091F809F0BFFC15F0CA
S31500007AA0784F294612BF0522DFF83C0802780620E7
S31500007AB00FF016FA0446A0B9184F3873012008F0E3
S31500007AC0B1FF0DF05CF878805FEA080014BF022071
S31500007AD001203870381D00F017FF00207873BE7340
S31500007AE002E0384601F06AF85FEA080031462846A7
S31500007AF002D0FDF7E9FC03E0FDF7E5FC00E07024A9
S31500007B000194009543462C220AA1032006F095F91C
S31500007B102046BDE8F68100004242000058F60020EB
S31500007B20F5FD00204CDF0020048B000098FD0020AE
S31500007B307CF60020424244420000000010B506F0E8
S31500007B40C0FB00F1100420460FF00CFC4FF6FF516D
S31500007B5001402046BDE810400FF00ABC78B587B05A
S31500007B600C4616461D4630B9204603F0ECF803A92C
S31500007B700EF03EFF03A80C99019007238DF80960CB
S31500007B8001208DF80830360A8DF80B1000908DF81C
S31500007B900A60042302AA012120460FF035FD0600E3
S31500007BA017D021460FF06AFF15B93046FFF7C6FF1A
S31500007BB00D9808B930460DE0204603F0F0F918B1EB
S31500007BC0304610F044F804E000220021304610F060
S31500007BD010FC002008B070BD2DE9F64F85B08A462E
S31500007BE01C46104610F012F80546BDF8180003A909
S31500007BF000270FF045FD002C4FF6FF79B84614BF5D
S31500007C004FF0010BBB460026BBF1000F07D008B1B1
S31500007C100DF10C086678760806F0010604E0BDF85A
S31500007C2018000FF067FF8046DFF8601C0978DFF860
S31500007C30A42C382012684143531C585C03281CBFEF
S31500007C400428B8F1000F00F0B38010986B1C1144A3
S31500007C501D5C8DF808A0680800F001008DF8090089
S31500007C602806887858BF45F08005022807D15FEAC4
S31500007C700A0002BF496B91F82400002801D10227AF
S31500007C8030E040460CF0D0FEADF80000BDF818001C
S31500007C900FF046FF814608B94FF0010930000CBFCE
S31500007CA04FF0050A4FF0010ABBF1000F04D0201D6A
S31500007CB00FF058FB834601E0BDF800B0BDF8180090
S31500007CC00FF0AAFECDF80490CDF800A02B465A4638
S31500007CD0414600F001000EF06BFD00F073F881469E
S31500007CE008BF01279CB19DF8080018B9484600F066
S31500007CF069F802D1201D0FF035FB012101910146E3
S31500007D00009733464A464046FFF728FF0AE0BDF88B
S31500007D1018000FF081FE3B464A46414600F001003E
S31500007D200FF0F3F99DF8090020B94FF6FF714046B0
S31500007D3010F0B5FE002F3BD19DF8090028B1414651
S31500007D40484610F0D7FE10F03AFF30001EBF4846F6
S31500007D504FF6FF71884219D002F0F5FFFF2815D0C3
S31500007D60DFF8287B97F800C0DFF8681B0A6838211F
S31500007D7011FB0CFC02F134034BF6FF7153F80C2097
S31500007D80526832F810300B4022F8103084B10CF0F3
S31500007D90DAFE0EB1002405E09DF80810002914BF94
S31500007DA003240124014643464A46204611F018F9A9
S31500007DB007B0BDE8F08F000090FD002080F800209D
S31500007DC0CEE300204FF6FF71884270472DE9FE4F43
S31500007DD081460F46144601A938460FF051FC8346EA
S31500007DE00021009138460FF011FF8246DFF8D46B70
S31500007DF05FEA090009D0BBF1000F504618BF0DF12C
S31500007E00040B0FF032FC054604E038460FF072FE14
S31500007E108346354638460FF0F9FE02590DF101004A
S31500007E2000920FF09FFA80465FEA09009DF8034032
S31500007E3018BF002D06D008223146284611F014FC42
S31500007E40002823D1DFF8446A31783825DFF8842A00
S31500007E5015FB01F112685318D87818B19AF8010089
S31500007E60830714D55FEA090011D0901C415C0229F2
S31500007E7008BF002C0BD140460CF071FE0BF0CEFD76
S31500007E809923FFF7A6FA9920FEF786F972E000F02B
S31500007E906BFF0028DFF82C7C18BF002C05D094203F
S31500007EA0FFF75FFA0020387664E000F05DFF0028F7
S31500007EB060D0584610F033FCFF28DFF8BC4B18BFE3
S31500007EC05FEA090106D13278482059464243A05A52
S31500007ED010F010FE10F073FE317848205A464143E8
S31500007EE04046615ADFF8EC4900F09AFBDFF8C80B10
S31500007EF090F90210090279843078216815FB00F0A8
S31500007F008A1C125C012A16BF312A11224322891CBF
S31500007F100A540220FEF7CDF8DFF8AC0B016807F132
S31500007F201800FCF73EFB0FF0F4F9002038743178A6
S31500007F3015FB01F521684A19D07820B907F1180018
S31500007F40FCF724FB14E0B9F1000F06D09AF8010003
S31500007F50820702D5FFF75CF90AE0481C415D042957
S31500007F6006D1052107F11800FCF71BFB0920387420
S31500007F70AD21F97300F063FC10B1002003F07EF927
S31500007F80BDE8F78FE0E30020E3E30020F3FD0020E7
S31500007F9000F8FF07B0F500202DE9F04F88468DB0B8
S31500007FA040460FF033FE05460922002111F06CFB16
S31500007FB0064640460FF09EFD824602AB052205A905
S31500007FC0404611F0B9FB8DF8000002282AD09DF832
S31500007FD0080000238619F6B2A95D06F11002D2B296
S31500007FE08DF8011041460120FDF769FA002819D0E5
S31500007FF09DF801003827DFF89448DFF8D8984FF647
S31500008000FF7B01280FD0022819D0042800F0CA806F
S31500008010062822D0072800F09180082838D07C282E
S3150000802000F09380E4E040460FF0F6FC0096002353
S315000080304246002100F00100FFF7CEFDD8E000F037
S31500008040E0F8012B02BFDFF87C1A0878002803D17C
S3150000805032464146FFF7BAFECAE0504602F023FE1A
S315000080600646584508D040460FF0D6FC32465146E3
S3150000807000F001000FF034F800F0C3F8022B06D12F
S31500008080FEF71CF85046FDF710FAFEF71BF8AFE0B6
S31500008090A819401C0FF066F9ADF80200A819C01C1B
S315000080A00FF060F9ADF80000A819801D0FF05AF91D
S315000080B006465845EBD00FF02CF900F09CF88B5C87
S315000080C0132B09D100F041FB40460FF013FD01468A
S315000080D0BDF8000010F00EFD00F08DF8885C022857
S315000080E018BF132823D130460CF039FDBDF8020025
S315000080F00CF051FD0021002000F0BCFABDF8000094
S31500008100514600F01BFCDFF8B009C078DFF8BC1957
S315000081100F28B4BF401C0F20087000F0CCF8207860
S3150000812017FB00F7D9F80000811CCA5D132A5FD13E
S315000081302321801CC1550EF042FF59E09DF8001026
S3150000814005AA404608F084FC52E0A8194078652844
S3150000815002BFA91C885D6D284AD14046133606F039
S31500008160C8F8F1B2814243D20822514603A8FDF76E
S31500008170D7FE6A46F1B240460FF0FEF8C0BBBDF826
S315000081800000A8B3DFF8484901202070FDF796FFEC
S31500008190BDF8001003A8FDF77CF9FDF793FF00205A
S315000081A0207025E006220021284611F06DFA2818D5
S315000081B00FF0D8F804460FF65C10008800210191F4
S315000081C0ADF80A00009102230DF10A0201212046B2
S315000081D00FF01AFA06000BD021460FF04FFC40466E
S315000081E00FF01AFC0022314600F0010011F0CDFA22
S315000081F00DB0BDE8F08F2278D9F800007A43811CD3
S3150000820070472278D9F8000017FB02F7811CCB5D76
S315000082107047F8B50220FDF74DFFFDF752FFDFF876
S31500008220A448002020763825DFF86066DFF8A476BB
S3150000823009F043FB40B1327839686A430A44D07882
S3150000824010B9FEF7E5FF2BE009F037FB10B900F097
S315000082508BFD68B1207C58B100F023F8207C411ECC
S315000082602174FDF72CFF0146002003F06AF917E0A0
S31500008270327838686A43811C8B5C132B0DD000F072
S3150000828073FD50B93278386815FB02F5811C485DDC
S3150000829011281CBF4328412802D1E07BFFF761F873
S315000082A0C9E2C82104F11800FCF77BB90020DFF809
S315000082B014180874704780B5FDF72CFFFF2807D007
S315000082C000F0E6FA416B91F8240010B1012000E0BD
S315000082D000200EF0AFFEDFF8EC0700214180001D04
S315000082E0C0E9001101BD0000E4E300202DE9F84FCC
S315000082F00C460546DFF8DC670121DFF8BCA784B031
S3150000830090467173504608F06CFB11F04DFB002847
S3150000831014D1012D18BF042D00D085B9CDF80080E9
S3150000832023462622BDA1032005F087FDFDF7C6FEE4
S315000083304146204603F0DEFFFDF7C4FEBBE0DFF852
S315000083404C753A78DFF88C55382428686243811CCE
S31500008350885C23280DD100F003FC044600F009FCDC
S31500008360214602F09CF9022000F028FC09F0C9F829
S31500008370A1E0B8F1000FFBD121281CBF0428532827
S3150000838002D10CF066F896E000F0EEFC002800F052
S31500008390AC8008F043FB28B9307B00280CBFAB202B
S315000083A094209FE0504608F01CFB28B140F2D661AD
S315000083B00FF25070FCF75EFF307818B95046FFF7A1
S315000083C032FA78E00CF0BFFB3A78834628686243BD
S315000083D0411C885C032818BF042807D19AF80700B7
S315000083E0C10744BF9AF905000EF021FE9AF8000075
S315000083F0DFF884864FF0480900F052FABAF80A000E
S31500008400002100F09BFA00F0AFFC80B1BBF1000F39
S3150000841003D04FF6F8718B4509DB0CF0A7FE3978CF
S31500008420834619FB01F138F801209042F5D05846F1
S315000084300CF095FBBAF808000CF0ADFB06208DF8A1
S31500008440080000F06CFA8DF80900002001900090F9
S315000084503878022302AA19FB00F0012138F800003F
S315000084600FF0D2F8824608B918203BE0387819FB9D
S3150000847000F9504638F809100FF000FB3078022852
S315000084801CBF5046FFF75AFB0022002150460FF052
S31500008490B0FF30B39420F0730220FDF70AFE3A785D
S315000084A0286800F079F814D1C82106F11800FCF705
S315000084B078F8032030741020002102F053FD10B923
S315000084C00FF0E1FF10B1002003F03AF805B0BDE867
S315000084D0F08F4FF4167106F11800FCF762F80020D1
S315000084E0E8E79420FEF73DFFE5E73A78286862431F
S315000084F0811C8B5C132BDED100F008F9BDF800005F
S315000085000CF049FB00F021F9387814FB00F42868D8
S31500008510411C095D032918BF042904D13321801C9D
S3150000852001559620DEE7FEF7E5FEC4E7F8B50746F7
S31500008530D64D2878DFF8A0653824316860434A1C98
S31500008540135CBB4204D0491C0F543846FDF71DFE90
S3150000855011F033FA60B13FB9002011F030FAFDF79F
S31500008560AEFD0146012212E0012011F028FA00E0DA
S3150000857027B12A78306800F00FF804D1FDF79FFD87
S315000085800146002203E0FDF79AFD01220146002084
S31500008590BDE8F84011F028BB14FB02F4411C0B5D4A
S315000085A0042B704770B592B006460C46FDF77BFD6E
S315000085B0E17A0546002006F07CFC08B98A202AE00C
S315000085C094F90A0000F0EEFB08B18B2023E000F0DE
S315000085D07AF9E17A00F8D41FA27A294642706A46EF
S315000085E0002002F0D6FE4FF6FE708642ADF804601B
S315000085F06A460CBF4FF6FF702089ADF80200294687
S31500008600002002F0EBFD08B1022004E02089DFF82B
S31500008610C4144880002012B070BD000042424200DF
S3150000862038B50C4615460CF09AFA0CF057FD29465B
S31500008630204600F083F908F0F1F938B1DFF8780444
S31500008640C0780F28ACBF0F20401C05E08F4A00F011
S3150000865007F80CBF00200120DFF87014087031BD48
S31500008660DFF874041378016838204343C81841784A
S31500008670012970477FB504460E4600F047F8834D42
S31500008680C4B1DFF85824002130460BF0BEFC29782F
S315000086903820904A414310680822435C08448DF80C
S315000086A00430417802A88DF805102146FDF738FC04
S315000086B011F06CFB2A784820DFF82414424388180E
S315000086C010F8D41F8DF8031041788DF802100CF0C5
S315000086D056FAADF800000CF036FAADF8060000F0D8
S315000086E017F87FBD1FB5044600F010F81CB1002036
S315000086F08DF8050007E00CF026FAADF806000CF040
S315000087003EFAADF8000000F003F81FBD68464EE0E3
S3150000871010230722694600200BF09BBB80B58AB068
S31500008720FFF7F4FFBDF8000004A9ADF818009DF8A6
S3150000873003008DF81B009DF802008DF81A00BDF8A5
S315000087400600FFF72FFF0BB000BD70B586B0012005
S3150000875000F03AF90FF2C031D1E900234FF6FF7568
S3150000876004002E46CDE900230ED048490A78482059
S31500008770DFF86C634243B018B0F8E26000F1E40140
S3150000878008226846FDF7CCFB11F011FB02A800F0A9
S315000087900EF8002CBDF80E000EBF00226A463546C4
S315000087A02946FFF73DFF11F0D6FD06B070BD014624
S315000087B01023072201200BF04CBBF8B50446082015
S315000087C0FDF778FCFDF77DFC304DDFF818032B78BC
S315000087D0017848204343DFF80823D01880F8D410E6
S315000087E000F02DF810B1002002F048FD0021002015
S315000087F0FFF740FF29783826364F38687143014421
S315000088004878032818BF042802D10EF011FC01E0B5
S315000088100EF0F5F9204602F000FE9B23FEF7D9FD87
S315000088209B20FDF7B9FC29783868002216FB01F673
S31500008830304402854285BDE8F140FDF743BC002087
S3150000884006F0E7BA10B504462146002006F031FBD3
S3150000885008B98A2010BD00F01BF88078022818BFDE
S31500008860032801D0702010BD9E4804700820FDF733
S3150000887020FC0CF068FA08B13D2010BD9A4A9B49CD
S3150000888002F0B1FD00B1A12010BD0000F5FD0020F1
S31500008890974A10481378016838204343C818704730
S315000088A010B504460CF04FFA08B13D2010BD00F09B
S315000088B00AF880F8D440FFF7C2FF10B1002002F09A
S315000088C0DDFC002010BD8A4A1378482084494343C2
S315000088D0C81870474CDF002038B584B00446684697
S315000088E0FFF765FF9DF8050040B1042806DC00F09F
S315000088F0AFF89DF80410525D8A4201D0932001E042
S315000089002070002005B030BD1FB504466846FFF74D
S315000089104EFF082202A92046FDF702FB1FBD744B3D
S3150000892010B500F005F8734910194278885C10BD3F
S3150000893069481C7802683820444370472DE9F8439B
S3150000894081466B4E307848250C466843644F92B09A
S31500008950391807F1E408A1F8E29040441CB908214F
S31500008960FDF7DAFA03E008222146FDF7D9FAFDF70A
S315000089709AFB01466A46002002F00BFD3078082279
S31500008980684308EB000104A8FDF7CAFAADF80E909B
S31500008990FDF789FB01466A46002002F01FFC30788D
S315000089A04FF6FF7115FB00F57819B0F8E200884222
S315000089B01EBF002C08EB0501FCF789FD13B0BDE8CE
S315000089C0F0830000A8F600203EB50446414890F822
S315000089D020104FF6FF75C80708D500F01AF8BDF845
S315000089E00800A84202D000F00FF828B1002128465E
S315000089F0FFF7A4FF00203EBD24B1BDF8080069467C
S31500008A00FFF79CFF01203EBD0822FF21684600F0CB
S31500008A1099B90A230A22694601200BF01ABA38B519
S31500008A200446354802F0A0F800F012F851194A6BD6
S31500008A30002C82F826401EBF30490988002906D03E
S31500008A404FF47A725143BDE83440FBF7AABD31BDFD
S31500008A50274B21491D780A6838214D437047244A1F
S31500008A601D481378016838204343C818416B91F8B4
S31500008A70260070470000000062F9002038B5FBF7B9
S31500008A808EFE05461E4902F070F80446FF2818BF00
S31500008A90FDF717FB164B002028701D780E4938206D
S31500008AA00A6845435019416B0020FF2C81F82600C7
S31500008AB000D003E031BD00007CF60020BDE8314067
S31500008AC0FDF700BB58F60020D8DF002003FE00208B
S31500008AD09CF6002058F600204CDF002000F8FF0727
S31500008AE080F80020F4FD0020291E0100BB8700004D
S31500008AF0F5FD0020B46C0100C8F50020A2E30020BB
S31500008B00F0F500206173736F63696174696F6E2E8F
S31500008B106300000004600000FFFFFFFFFFFFFFFF90
S31500008B2020B500210FF2E422CBB2D35C834205D0FC
S31500008B30491CCDB2082DF7D3002020BD012020BD51
S31500008B4020B500210FF2CC22CBB2D35C834205D0F4
S31500008B50491CCDB2082DF7D3002020BD012020BD31
S31500008B608B4A137848208B494343C818B0F8E20073
S31500008B707047874A1378482086494343C818E4302B
S31500008B807047834A84481378016838204343C818DD
S31500008B90416B087E70477E4A7F481378016838200B
S31500008BA04343C818C0787047794B10B57A491C788A
S31500008BB00A6838214C431119C87010BD2DE9F041DF
S31500008BC0734D2A783824744E3168624307467348D9
S31500008BD00A44977001F0C8FF80467148022F1ED1E3
S31500008BE02B78316863434A1CD75C042F18BFFBF708
S31500008BF0CDFC2A7830686243411C885C03281EBF7E
S31500008C0004284046FBF7C2FC2978306814FB01F4BF
S31500008C1001194A68D00054BF9024BC2415E00021F5
S31500008C20017088F8001010F0F1FD2A78316814FB05
S31500008C3002F4481C005D032818BF042802D10EF078
S31500008C40F7F901E00DF0DBFF9124204610F0B1FEAC
S31500008C5050B9234613224DA1032005F0EEF8204615
S31500008C60BDE8F041FDF798BABDE8F081484A4A48A8
S31500008C701378016838204343C818807800F00F0045
S31500008C807047434A44481378016838204343C8185C
S31500008C90817801F00F01022901D1012070470020DF
S31500008CA0704710B592B00446FFF7EBFF20B900F00D
S31500008CB03FF818BF932019D1FDF7F5F900F08DF8AC
S31500008CC0BDF8020020819DF80100A0729DF80010F9
S31500008CD02046E172FFF718FE0020207304F114010C
S31500008CE004F110000BF069F9E081002012B010BD0C
S31500008CF038B592B004460D46FFF7C3FF20B900F021
S31500008D0017F818BF932011D1FDF7CDF901466A4631
S31500008D10204602F03EFB9DF8010000212870697094
S31500008D209DF8000000F01F00A870002013B030BDB1
S31500008D30174A19481378016838204343C8188178C0
S31500008D400329704710B5002300E05B1CDCB28C429F
S31500008D5005D210F8014B9442F7D0002010BD012037
S31500008D6010BD08210DF0AABF094A0B481378016807
S31500008D7038204343C818807801281CBF312833287F
S31500008D8001D10120704700207047000042420000D8
S31500008D90F5FD002080F800204CDF0020C0F5002003
S31500008DA0ECF7002070B5044692B02146002006F08C
S31500008DB04AF80546C0B268B9FDF775F906466A462F
S31500008DC0314600F00CF88DF801406A463146002025
S31500008DD002F004FAE8B212B070BD01466A460020FD
S31500008DE002F0D7BA80B592B0FDF75DF9FFF7F5FF4F
S31500008DF09DF8000013B000BD0120704780B5FFF755
S31500008E00F1FF400918BF012002BD00000001020366
S31500008E1004051D200203040508090A0B4FF6FF721C
S31500008E200146904208D0000A01D0002070473B4816
S31500008E30027811EA020000D001207047020A07D129
S31500008E40364A1378002914BF184323EA000010702D
S31500008E50704710B5830800EB5374C1080122E4087B
S31500008E60A0EBC40002FA00F000EB012080B210BDB6
S31500008E70F8B504460D4616461F46FFF7CFFF58B114
S31500008E803A463146002007F04DF81DB120A10020DA
S31500008E9007F040F822480480F1BD0CB480B50A46BC
S31500008EA002AB012104E00CB480B50A4602AB0021F6
S31500008EB0FFF7DEFF01BC5DF80CFB2DE9FC41002449
S31500008EC0184DDFF8648013A713A6A0B2FFF7C1FF01
S31500008ED0FFF7A4FF00282246294614BF304638462D
S31500008EE0009058F824300020641C06F0FEFF002095
S31500008EF0FDF7C2FF052CE8DBBDE8F381FF22012167
S31500008F000648FEF71BB805480021017070470000AF
S31500008F100D0A00006E6F000059455300BDE30020A6
S31500008F205EFA00209C0B0300B4DD002080B5FFF73D
S31500008F3090FF012103E080B5FFF78BFF0021BDE81C
S31500008F4004407BE71CB5044621684879FCF728FBFA
S31500008F5088B92068418803290DD0E27C00910B492D
S31500008F60019243790A4A0120FFF797FF0121204623
S31500008F70FCF76CFE07E0204611F0F4F901001CBF77
S31500008F802046FCF763FE012016BD00BFAC0B0300B4
S31500008F90D80B03000098002100E0491C8AB28242E7
S31500008FA0FBD370472DE9F84F86B004462168E07C74
S31500008FB00026B1F802800490607DA568B4F80C9094
S31500008FC00028277D07BF40228DF80C2080238DF8CE
S31500008FD00C304879FCF7E4FAC8B90498002818BFA1
S31500008FE0022814D003281CBF0528B8F1030F0ED0A1
S31500008FF0DFF86C140120FFF750FF049BDFF86424B0
S31500009000DFF864140220FFF748FF01211EE2E07B2F
S3150000901018B1218A002900F05181DFF850341E80F2
S31500009020617D00290CBF0821002108B141F004012F
S31500009030084600F06FFAE07B18B1208A00F079FA52
S315000090400646A07CA9EB070ADFF824B400F062FA12
S315000090500499781C80B2162900F23081DFE811F0FD
S3150000906017003601810034006501810029016A017B
S3150000907030016F0174017901E2008D012E012E018C
S315000090802E019E01DB019E01E801E2008D01012017
S3150000909000F040FADFF8D4639DF80CA0B8B2801C4B
S315000090A08145C0F0BC804A46B9B2284600F06CFA49
S315000090B0834600F00AFA00F0E7FB18B900F005FA5B
S315000090C011F0FBFABF1CE9E7042000F023FA0026A2
S315000090D0ADF80E8002E04744FF1CBFB2A9F10300C1
S315000090E0874231D200F0E6F98246A81C10F807B094
S315000090F0A9EB0701CA1EEB1C92B2D919584611F00A
S315000091001FFC5FEA000808BF4FF0800B12D0E81C76
S315000091103844CDF808B00190218A9DF80C305246AB
S3150000912000912068BDF80E10407911F07FF9834652
S315000091300028D0D0584600F0EDF95046761C00F0D5
S31500009140F8F9BBF1800FC6D1F6B2BDF80E80002E3D
S3150000915065D1E07B277DC549002814BF0420022085
S31500009160088004204FF0000A00F0D4F9D3462646C2
S31500009170ADF80E80CDF814901EE09DF80DA000F01D
S31500009180C9F9404600F0D5F913E0E81C3844CDF89B
S3150000919008900190318A9DF80C3042460091306863
S315000091A0BDF80E10407911F001F90100E5D10BF17F
S315000091B0010BE719FF1CBFB20599F81C88421FD2A4
S315000091C08AB23946284600F0DFF980460598A91C80
S315000091D011F80790C01BC21EE91C92B239444846DA
S315000091E011F0AEFB04000AF101008DF80D00CCD1A0
S315000091F09DF80DA0872000F08DF9404600F099F902
S315000092000499304605290CD0BAF1000F07D15FFA50
S315000092108BF109B980211AE1002000F07BF9FCF7F7
S31500009220D6FC16E10C290CBF0D20162000F072F9B1
S3150000923000F040F904998146A81CC55D0C2903D1AC
S315000092401A2D06DB192504E0152902D1142DA8BF15
S315000092501325E07B98B1208A4FF6FF7188420ED124
S3150000926020689DF80C304A464079414611F0FDF8D9
S315000092704FF6FF71884218BF002E00F020F97B4898
S31500009280018800200BEB010700F044F904980195D2
S315000092909DF80C3015284A4641460CBF0120002097
S315000092A00290208A00902468607911F039F93870AC
S315000092B0B5E72046FCF71AF90028B2D18121C5E0AE
S315000092C02046FCF751F90028ABD1F7E7B8F10A0FB1
S315000092D026D1684E307818B3E07B002804BFA9EB8E
S315000092E0070008281CD100F0E5F8002802BFA91CD9
S315000092F0C85D002802BFE819C078E22810D1391DE0
S315000093004A4689B2284600F03DF900F0F9F900F026
S31500009310F9F9024658490220FFF7BFFD00203070D8
S3150000932000F0C3F800F0BDFA8EE000F0BEF8FCF7DE
S3150000933030F989E000F0B9F8FCF7DAF884E000F0DB
S31500009340B4F8FCF713F97FE000F0AFF800F0ABFAE1
S315000093507AE0EF5D2D5C208A9DF80C102B4601907B
S31500009360009124683A4641466079FBF795FA2A4609
S3150000937039464046FCF7BEF86BE0E95D01B10121D4
S31500009380049A162A0CBF012200220092A9EB0002C1
S3150000939093B22A184046FCF7AFF855E015F8079047
S315000093A0681CC55D112904D1122000F0B3F800270E
S315000093B003E0142000F0AEF80127E07B78B1208AA4
S315000093C04FF6FF7A50450AD14B464246214638466B
S315000093D0FBF701FE504518BF002E00F070F8234E33
S315000093E030880395CDF808908246C0F15100019669
S315000093F080B200900BF1010000EB0A0342462146C1
S315000094003846FBF722FE00B101200BF80A0030882F
S31500009410401C308003E700F031F81CDB00F03CF81C
S315000094200020FFF7B7FD00F02FF8FCF769F80BE016
S3150000943000F024F80FDB00F02FF80120FFF7AAFD5B
S3150000944000F022F8FCF75AF818B900212046FCF77C
S31500009450FDFB012000E0002007B0BDE8F08F000012
S31500009460E00B0300080C0300EC0B03004AFA002093
S31500009470A8E60020ADFD0020100C0300EE5D06B14D
S3150000948001260746B94570471FFA89F00090218AE0
S31500009490EB19324640467047A9EB07091FFA89F0D7
S315000094A00090EB193246414670471FFA8AF2E919D5
S315000094B0404670474A463946284600F065B803D00C
S315000094C020823070000A70707047308853465A46C2
S315000094D0C0F1520080B20190218A0091D4F800C0F8
S315000094E041469CF80500704780B500203349087056
S315000094F002F0A3FC324A10805221324800F0D6F91D
S31500009500002031490880314800210022002380E8EC
S315000095100E0001BD10B52C490A88522A07DA294CDB
S31500009520A054521C0A8092B2A018401E10BD002002
S3150000953010BD38B50546C0B2FFF7ECFF0446280A51
S31500009540FFF7E8FF002C18BF002801D0204632BDE7
S31500009550002032BD70B500245E181D46B2420CDAFA
S315000095601A461B4900F016F8002070BD5218024436
S3150000957012F8013C6D1E03EB0424EAB2002AF5D171
S31500009580204670BD0423E5E780B50223FFF7E2FF1E
S3150000959080B202BD0220FFF780BC0078FF2808BF1A
S315000095A00020704780B502220021FFF7EDFF4FF63D
S315000095B0FF72904208BF002002BD0000B4FD0020EB
S315000095C002F80020A8E600204AFA00209CE60020C7
S315000095D0F40603004AB1000011F8013B521E00F8E0
S315000095E0013B1CBF11F8013BF8E77047F0B5414C51
S315000095F0B0FBF4F40A463F4901FB14004FF46165E1
S315000096004FF46161B0FBF5F53C270123157115791F
S315000096102E4601FB1606A0EB05103C21B6FBF7F71C
S3150000962000265771557901FB1500314D90714FF4A5
S31500009630FA6010809370D37003E0002300E00123EA
S31500009640761CA64235D29078190003D0022808BFAE
S315000096501D2102D0291811F8011CD778B94203BF81
